{
  "contractName": "DutchAuctionHouse",
  "abi": [
    {
      "inputs": [],
      "stateMutability": "nonpayable",
      "type": "constructor"
    },
    {
      "anonymous": false,
      "inputs": [
        {
          "indexed": false,
          "internalType": "uint256",
          "name": "orderId",
          "type": "uint256"
        }
      ],
      "name": "BuyID",
      "type": "event"
    },
    {
      "anonymous": false,
      "inputs": [
        {
          "components": [
            {
              "internalType": "uint256",
              "name": "id",
              "type": "uint256"
            },
            {
              "internalType": "address",
              "name": "owner",
              "type": "address"
            },
            {
              "internalType": "bytes32",
              "name": "blindBid",
              "type": "bytes32"
            },
            {
              "internalType": "enum DutchAuctionHouse.OrderStatus",
              "name": "status",
              "type": "uint8"
            },
            {
              "internalType": "bool",
              "name": "exists",
              "type": "bool"
            },
            {
              "internalType": "address",
              "name": "token",
              "type": "address"
            },
            {
              "internalType": "uint256",
              "name": "price",
              "type": "uint256"
            },
            {
              "internalType": "uint256",
              "name": "amount",
              "type": "uint256"
            },
            {
              "internalType": "uint256",
              "name": "previous",
              "type": "uint256"
            },
            {
              "internalType": "uint256",
              "name": "next",
              "type": "uint256"
            }
          ],
          "indexed": false,
          "internalType": "struct DutchAuctionHouse.BuyOrder",
          "name": "b",
          "type": "tuple"
        }
      ],
      "name": "DebugBuy",
      "type": "event"
    },
    {
      "anonymous": false,
      "inputs": [
        {
          "indexed": false,
          "internalType": "uint256",
          "name": "i",
          "type": "uint256"
        }
      ],
      "name": "DebugInt",
      "type": "event"
    },
    {
      "anonymous": false,
      "inputs": [
        {
          "components": [
            {
              "internalType": "uint256",
              "name": "id",
              "type": "uint256"
            },
            {
              "internalType": "address",
              "name": "owner",
              "type": "address"
            },
            {
              "internalType": "uint256",
              "name": "price",
              "type": "uint256"
            },
            {
              "internalType": "address",
              "name": "token",
              "type": "address"
            },
            {
              "internalType": "uint256",
              "name": "amount",
              "type": "uint256"
            },
            {
              "internalType": "bool",
              "name": "exists",
              "type": "bool"
            },
            {
              "internalType": "uint256",
              "name": "previous",
              "type": "uint256"
            },
            {
              "internalType": "uint256",
              "name": "next",
              "type": "uint256"
            }
          ],
          "indexed": false,
          "internalType": "struct DutchAuctionHouse.SellOrder",
          "name": "s",
          "type": "tuple"
        }
      ],
      "name": "DebugSell",
      "type": "event"
    },
    {
      "anonymous": false,
      "inputs": [
        {
          "indexed": false,
          "internalType": "address",
          "name": "a",
          "type": "address"
        }
      ],
      "name": "DebugSender",
      "type": "event"
    },
    {
      "anonymous": false,
      "inputs": [
        {
          "indexed": false,
          "internalType": "uint256",
          "name": "orderId",
          "type": "uint256"
        }
      ],
      "name": "SellID",
      "type": "event"
    },
    {
      "inputs": [],
      "name": "create_account",
      "outputs": [],
      "stateMutability": "payable",
      "type": "function"
    },
    {
      "inputs": [
        {
          "internalType": "address",
          "name": "_tokenAddress",
          "type": "address"
        },
        {
          "internalType": "uint256",
          "name": "_amount",
          "type": "uint256"
        }
      ],
      "name": "create_token_account",
      "outputs": [],
      "stateMutability": "payable",
      "type": "function"
    },
    {
      "inputs": [],
      "name": "deposit_funds",
      "outputs": [],
      "stateMutability": "payable",
      "type": "function"
    },
    {
      "inputs": [
        {
          "internalType": "address payable",
          "name": "transferTo",
          "type": "address"
        },
        {
          "internalType": "uint256",
          "name": "_amount",
          "type": "uint256"
        }
      ],
      "name": "withdraw_funds",
      "outputs": [],
      "stateMutability": "nonpayable",
      "type": "function"
    },
    {
      "inputs": [
        {
          "internalType": "address",
          "name": "_tokenAddress",
          "type": "address"
        },
        {
          "internalType": "uint256",
          "name": "_amount",
          "type": "uint256"
        }
      ],
      "name": "deposit_token",
      "outputs": [],
      "stateMutability": "nonpayable",
      "type": "function"
    },
    {
      "inputs": [
        {
          "internalType": "address",
          "name": "_tokenAddress",
          "type": "address"
        },
        {
          "internalType": "uint256",
          "name": "_amount",
          "type": "uint256"
        }
      ],
      "name": "withdraw_token",
      "outputs": [],
      "stateMutability": "nonpayable",
      "type": "function"
    },
    {
      "inputs": [
        {
          "internalType": "address",
          "name": "_tokenAddress",
          "type": "address"
        },
        {
          "internalType": "uint256",
          "name": "_amount",
          "type": "uint256"
        },
        {
          "internalType": "uint256",
          "name": "_price",
          "type": "uint256"
        }
      ],
      "name": "sell",
      "outputs": [],
      "stateMutability": "nonpayable",
      "type": "function"
    },
    {
      "inputs": [
        {
          "internalType": "uint256",
          "name": "_id",
          "type": "uint256"
        }
      ],
      "name": "withdraw_sell_order",
      "outputs": [],
      "stateMutability": "nonpayable",
      "type": "function"
    },
    {
      "inputs": [
        {
          "internalType": "uint256",
          "name": "_id",
          "type": "uint256"
        },
        {
          "internalType": "uint256",
          "name": "_price",
          "type": "uint256"
        }
      ],
      "name": "reduce_price",
      "outputs": [],
      "stateMutability": "nonpayable",
      "type": "function"
    },
    {
      "inputs": [
        {
          "internalType": "bytes32",
          "name": "_bid",
          "type": "bytes32"
        }
      ],
      "name": "buy",
      "outputs": [],
      "stateMutability": "nonpayable",
      "type": "function"
    },
    {
      "inputs": [
        {
          "internalType": "uint256",
          "name": "_id",
          "type": "uint256"
        }
      ],
      "name": "withdraw_buy_order",
      "outputs": [],
      "stateMutability": "nonpayable",
      "type": "function"
    },
    {
      "inputs": [
        {
          "internalType": "uint256",
          "name": "_id",
          "type": "uint256"
        },
        {
          "internalType": "address",
          "name": "_token",
          "type": "address"
        },
        {
          "internalType": "uint256",
          "name": "_price",
          "type": "uint256"
        },
        {
          "internalType": "uint256",
          "name": "_amount",
          "type": "uint256"
        },
        {
          "internalType": "uint256",
          "name": "_nonce",
          "type": "uint256"
        }
      ],
      "name": "open_buy_order",
      "outputs": [],
      "stateMutability": "nonpayable",
      "type": "function"
    },
    {
      "inputs": [],
      "name": "init_match_phase",
      "outputs": [],
      "stateMutability": "nonpayable",
      "type": "function"
    }
  ],
  "bytecode": "0x60a060405260008060006101000a81548160ff021916908360038111156200002c576200002b620000a8565b5b0217905550600160055560006006556000600760006101000a81548160ff0219169083151502179055506000600760016101000a81548160ff0219169083151502179055506000600760026101000a81548160ff0219169083151502179055503480156200009957600080fd5b504260808181525050620000d7565b7f4e487b7100000000000000000000000000000000000000000000000000000000600052602160045260246000fd5b608051615f75620000f360003960006134600152615f756000f3fe6080604052600436106100c25760003560e01c80636a2724621161007f5780639c9a1061116100595780639c9a1061146101e8578063b74b058d14610211578063e4a1d8681461022d578063ea93295414610256576100c2565b80636a2724621461017f5780636b20783c146101a8578063907b9405146101d1576100c2565b80631031bfd9146100c757806313ee6a73146100f057806325f62784146100fa57806346475c301461012357806348a1a8011461014c578063509f863314610175575b600080fd5b3480156100d357600080fd5b506100ee60048036038101906100e99190615020565b61027f565b005b6100f861092e565b005b34801561010657600080fd5b50610121600480360381019061011c91906150d9565b6109d6565b005b34801561012f57600080fd5b5061014a60048036038101906101459190615119565b610ea0565b005b34801561015857600080fd5b50610173600480360381019061016e9190615119565b61114f565b005b61017d611679565b005b34801561018b57600080fd5b506101a660048036038101906101a19190615146565b611782565b005b3480156101b457600080fd5b506101cf60048036038101906101ca9190615199565b612154565b005b3480156101dd57600080fd5b506101e66126be565b005b3480156101f457600080fd5b5061020f600480360381019061020a919061520f565b6128ea565b005b61022b6004803603810190610226919061523c565b612edb565b005b34801561023957600080fd5b50610254600480360381019061024f919061523c565b612ff3565b005b34801561026257600080fd5b5061027d6004803603810190610278919061523c565b6130a0565b005b600261028961345a565b33600160008273ffffffffffffffffffffffffffffffffffffffff1673ffffffffffffffffffffffffffffffffffffffff16815260200190815260200160002060030160009054906101000a900460ff16610319576040517f08c379a0000000000000000000000000000000000000000000000000000000008152600401610310906152ff565b60405180910390fd5b60006002600381111561032f5761032e61531f565b5b8160038111156103425761034161531f565b5b14801561035c5750600760029054906101000a900460ff16155b806103a45750600160038111156103765761037561531f565b5b8160038111156103895761038861531f565b5b1480156103a35750600760019054906101000a900460ff16155b5b806103ec5750600060038111156103be576103bd61531f565b5b8160038111156103d1576103d061531f565b5b1480156103eb5750600760009054906101000a900460ff16155b5b8061044b57506003808111156104055761040461531f565b5b8160038111156104185761041761531f565b5b14801561044a5750600760019054906101000a900460ff1680156104485750600760009054906101000a900460ff165b155b5b61048a576040517f08c379a0000000000000000000000000000000000000000000000000000000008152600401610481906153c0565b60405180910390fd5b60003389600160038111156104a2576104a161531f565b5b8360038111156104b5576104b461531f565b5b036105d3578173ffffffffffffffffffffffffffffffffffffffff16600260006004600085815260200190815260200160002060009054906101000a900473ffffffffffffffffffffffffffffffffffffffff1673ffffffffffffffffffffffffffffffffffffffff1673ffffffffffffffffffffffffffffffffffffffff168152602001908152602001600020600083815260200190815260200160002060010160009054906101000a900473ffffffffffffffffffffffffffffffffffffffff1673ffffffffffffffffffffffffffffffffffffffff16146105ce576040517f08c379a00000000000000000000000000000000000000000000000000000000081526004016105c590615478565b60405180910390fd5b610678565b8173ffffffffffffffffffffffffffffffffffffffff166003600083815260200190815260200160002060010160009054906101000a900473ffffffffffffffffffffffffffffffffffffffff1673ffffffffffffffffffffffffffffffffffffffff1614610677576040517f08c379a000000000000000000000000000000000000000000000000000000000815260040161066e9061550a565b60405180910390fd5b5b60008a8a8a8a6040516020016106919493929190615593565b604051602081830303815290604052805190602001209050600360008d8152602001908152602001600020600201548114610701576040517f08c379a00000000000000000000000000000000000000000000000000000000081526004016106f890615653565b60405180910390fd5b600160003373ffffffffffffffffffffffffffffffffffffffff1673ffffffffffffffffffffffffffffffffffffffff16815260200190815260200160002060010154600160003373ffffffffffffffffffffffffffffffffffffffff1673ffffffffffffffffffffffffffffffffffffffff1681526020019081526020016000206000015461079191906156a2565b898b61079d91906156d6565b11156107de576040517f08c379a00000000000000000000000000000000000000000000000000000000081526004016107d59061578a565b60405180910390fd5b888a6107ea91906156d6565b600160003373ffffffffffffffffffffffffffffffffffffffff1673ffffffffffffffffffffffffffffffffffffffff168152602001908152602001600020600101600082825461083b91906157aa565b9250508190555061084c60006135de565b8a600360008e815260200190815260200160002060030160026101000a81548173ffffffffffffffffffffffffffffffffffffffff021916908373ffffffffffffffffffffffffffffffffffffffff16021790555089600360008e81526020019081526020016000206004018190555088600360008e8152602001908152602001600020600501819055506001600360008e815260200190815260200160002060030160006101000a81548160ff021916908360028111156109115761091061531f565b5b02179055506109206000613719565b505050505050505050505050565b600061093861345a565b33600160008273ffffffffffffffffffffffffffffffffffffffff1673ffffffffffffffffffffffffffffffffffffffff16815260200190815260200160002060030160009054906101000a900460ff166109c8576040517f08c379a00000000000000000000000000000000000000000000000000000000081526004016109bf906152ff565b60405180910390fd5b6109d23334613839565b5050565b60006109e061345a565b33600160008273ffffffffffffffffffffffffffffffffffffffff1673ffffffffffffffffffffffffffffffffffffffff16815260200190815260200160002060030160009054906101000a900460ff16610a70576040517f08c379a0000000000000000000000000000000000000000000000000000000008152600401610a67906152ff565b60405180910390fd5b6002806003811115610a8557610a8461531f565b5b816003811115610a9857610a9761531f565b5b148015610ab25750600760029054906101000a900460ff16155b80610afa575060016003811115610acc57610acb61531f565b5b816003811115610adf57610ade61531f565b5b148015610af95750600760019054906101000a900460ff16155b5b80610b42575060006003811115610b1457610b1361531f565b5b816003811115610b2757610b2661531f565b5b148015610b415750600760009054906101000a900460ff16155b5b80610ba15750600380811115610b5b57610b5a61531f565b5b816003811115610b6e57610b6d61531f565b5b148015610ba05750600760019054906101000a900460ff168015610b9e5750600760009054906101000a900460ff165b155b5b610be0576040517f08c379a0000000000000000000000000000000000000000000000000000000008152600401610bd7906153c0565b60405180910390fd5b610bea60026135de565b7f66adb6b61689eb20abb744cb25721504c5861b418a77988e230daee31f7187e2600160003373ffffffffffffffffffffffffffffffffffffffff1673ffffffffffffffffffffffffffffffffffffffff16815260200190815260200160002060000154604051610c5b91906157ed565b60405180910390a183600160003373ffffffffffffffffffffffffffffffffffffffff1673ffffffffffffffffffffffffffffffffffffffff168152602001908152602001600020600001541015610ce8576040517f08c379a0000000000000000000000000000000000000000000000000000000008152600401610cdf9061587a565b60405180910390fd5b6000600160003373ffffffffffffffffffffffffffffffffffffffff1673ffffffffffffffffffffffffffffffffffffffff16815260200190815260200160002060000154905080600160003373ffffffffffffffffffffffffffffffffffffffff1673ffffffffffffffffffffffffffffffffffffffff1681526020019081526020016000206000016000828254610d8191906156a2565b9250508190555060008673ffffffffffffffffffffffffffffffffffffffff1682604051610dae906158cb565b60006040518083038185875af1925050503d8060008114610deb576040519150601f19603f3d011682016040523d82523d6000602084013e610df0565b606091505b5050905080610e8d5781600160003373ffffffffffffffffffffffffffffffffffffffff1673ffffffffffffffffffffffffffffffffffffffff1681526020019081526020016000206000016000828254610e4b91906157aa565b925050819055506040517f08c379a0000000000000000000000000000000000000000000000000000000008152600401610e8490615952565b60405180910390fd5b610e976002613719565b50505050505050565b6001610eaa61345a565b33600160008273ffffffffffffffffffffffffffffffffffffffff1673ffffffffffffffffffffffffffffffffffffffff16815260200190815260200160002060030160009054906101000a900460ff16610f3a576040517f08c379a0000000000000000000000000000000000000000000000000000000008152600401610f31906152ff565b60405180910390fd5b6001338460016003811115610f5257610f5161531f565b5b836003811115610f6557610f6461531f565b5b03611083578173ffffffffffffffffffffffffffffffffffffffff16600260006004600085815260200190815260200160002060009054906101000a900473ffffffffffffffffffffffffffffffffffffffff1673ffffffffffffffffffffffffffffffffffffffff1673ffffffffffffffffffffffffffffffffffffffff168152602001908152602001600020600083815260200190815260200160002060010160009054906101000a900473ffffffffffffffffffffffffffffffffffffffff1673ffffffffffffffffffffffffffffffffffffffff161461107e576040517f08c379a000000000000000000000000000000000000000000000000000000000815260040161107590615478565b60405180910390fd5b611128565b8173ffffffffffffffffffffffffffffffffffffffff166003600083815260200190815260200160002060010160009054906101000a900473ffffffffffffffffffffffffffffffffffffffff1673ffffffffffffffffffffffffffffffffffffffff1614611127576040517f08c379a000000000000000000000000000000000000000000000000000000000815260040161111e9061550a565b60405180910390fd5b5b61113260016135de565b61113d600187613896565b6111476001613719565b505050505050565b600261115961345a565b33600160008273ffffffffffffffffffffffffffffffffffffffff1673ffffffffffffffffffffffffffffffffffffffff16815260200190815260200160002060030160009054906101000a900460ff166111e9576040517f08c379a00000000000000000000000000000000000000000000000000000000081526004016111e0906152ff565b60405180910390fd5b6000600260038111156111ff576111fe61531f565b5b8160038111156112125761121161531f565b5b14801561122c5750600760029054906101000a900460ff16155b806112745750600160038111156112465761124561531f565b5b8160038111156112595761125861531f565b5b1480156112735750600760019054906101000a900460ff16155b5b806112bc57506000600381111561128e5761128d61531f565b5b8160038111156112a1576112a061531f565b5b1480156112bb5750600760009054906101000a900460ff16155b5b8061131b57506003808111156112d5576112d461531f565b5b8160038111156112e8576112e761531f565b5b14801561131a5750600760019054906101000a900460ff1680156113185750600760009054906101000a900460ff165b155b5b61135a576040517f08c379a0000000000000000000000000000000000000000000000000000000008152600401611351906153c0565b60405180910390fd5b60003385600160038111156113725761137161531f565b5b8360038111156113855761138461531f565b5b036114a3578173ffffffffffffffffffffffffffffffffffffffff16600260006004600085815260200190815260200160002060009054906101000a900473ffffffffffffffffffffffffffffffffffffffff1673ffffffffffffffffffffffffffffffffffffffff1673ffffffffffffffffffffffffffffffffffffffff168152602001908152602001600020600083815260200190815260200160002060010160009054906101000a900473ffffffffffffffffffffffffffffffffffffffff1673ffffffffffffffffffffffffffffffffffffffff161461149e576040517f08c379a000000000000000000000000000000000000000000000000000000000815260040161149590615478565b60405180910390fd5b611548565b8173ffffffffffffffffffffffffffffffffffffffff166003600083815260200190815260200160002060010160009054906101000a900473ffffffffffffffffffffffffffffffffffffffff1673ffffffffffffffffffffffffffffffffffffffff1614611547576040517f08c379a000000000000000000000000000000000000000000000000000000000815260040161153e9061550a565b60405180910390fd5b5b61155260006135de565b61155d600088613896565b6003600088815260200190815260200160002060040154600360008981526020019081526020016000206005015461159591906156d6565b600160003373ffffffffffffffffffffffffffffffffffffffff1673ffffffffffffffffffffffffffffffffffffffff16815260200190815260200160002060010160008282546115e691906156a2565b925050819055507f66adb6b61689eb20abb744cb25721504c5861b418a77988e230daee31f7187e2600160003373ffffffffffffffffffffffffffffffffffffffff1673ffffffffffffffffffffffffffffffffffffffff1681526020019081526020016000206001015460405161165e91906157ed565b60405180910390a16116706000613719565b50505050505050565b33600160008273ffffffffffffffffffffffffffffffffffffffff1673ffffffffffffffffffffffffffffffffffffffff16815260200190815260200160002060030160009054906101000a900460ff161561170a576040517f08c379a0000000000000000000000000000000000000000000000000000000008152600401611701906159e4565b60405180910390fd5b6000600160003373ffffffffffffffffffffffffffffffffffffffff1673ffffffffffffffffffffffffffffffffffffffff16815260200190815260200160002090506000816000018190555060018160030160006101000a81548160ff02191690831515021790555061177e3334613839565b5050565b600161178c61345a565b33600160008273ffffffffffffffffffffffffffffffffffffffff1673ffffffffffffffffffffffffffffffffffffffff16815260200190815260200160002060030160009054906101000a900460ff1661181c576040517f08c379a0000000000000000000000000000000000000000000000000000000008152600401611813906152ff565b60405180910390fd5b33856000600160008473ffffffffffffffffffffffffffffffffffffffff1673ffffffffffffffffffffffffffffffffffffffff16815260200190815260200160002060020160008373ffffffffffffffffffffffffffffffffffffffff1673ffffffffffffffffffffffffffffffffffffffff16815260200190815260200160002054116118e0576040517f08c379a00000000000000000000000000000000000000000000000000000000081526004016118d790615a76565b60405180910390fd5b6001600260038111156118f6576118f561531f565b5b8160038111156119095761190861531f565b5b1480156119235750600760029054906101000a900460ff16155b8061196b57506001600381111561193d5761193c61531f565b5b8160038111156119505761194f61531f565b5b14801561196a5750600760019054906101000a900460ff16155b5b806119b35750600060038111156119855761198461531f565b5b8160038111156119985761199761531f565b5b1480156119b25750600760009054906101000a900460ff16155b5b80611a1257506003808111156119cc576119cb61531f565b5b8160038111156119df576119de61531f565b5b148015611a115750600760019054906101000a900460ff168015611a0f5750600760009054906101000a900460ff165b155b5b611a51576040517f08c379a0000000000000000000000000000000000000000000000000000000008152600401611a48906153c0565b60405180910390fd5b86600160003373ffffffffffffffffffffffffffffffffffffffff1673ffffffffffffffffffffffffffffffffffffffff16815260200190815260200160002060020160008a73ffffffffffffffffffffffffffffffffffffffff1673ffffffffffffffffffffffffffffffffffffffff168152602001908152602001600020541015611b13576040517f08c379a0000000000000000000000000000000000000000000000000000000008152600401611b0a90615b08565b60405180910390fd5b611b1d60016135de565b6000611b296001613d48565b9050886004600083815260200190815260200160002060006101000a81548173ffffffffffffffffffffffffffffffffffffffff021916908373ffffffffffffffffffffffffffffffffffffffff1602179055506000600260008b73ffffffffffffffffffffffffffffffffffffffff1673ffffffffffffffffffffffffffffffffffffffff1681526020019081526020016000206000600654815260200190815260200160002060405180610100016040529081600082015481526020016001820160009054906101000a900473ffffffffffffffffffffffffffffffffffffffff1673ffffffffffffffffffffffffffffffffffffffff1673ffffffffffffffffffffffffffffffffffffffff168152602001600282015481526020016003820160009054906101000a900473ffffffffffffffffffffffffffffffffffffffff1673ffffffffffffffffffffffffffffffffffffffff1673ffffffffffffffffffffffffffffffffffffffff168152602001600482015481526020016005820160009054906101000a900460ff161515151581526020016006820154815260200160078201548152505090505b6000816000015114611e51578781604001511115611e5157600260008b73ffffffffffffffffffffffffffffffffffffffff1673ffffffffffffffffffffffffffffffffffffffff16815260200190815260200160002060008260c00151815260200190815260200160002060405180610100016040529081600082015481526020016001820160009054906101000a900473ffffffffffffffffffffffffffffffffffffffff1673ffffffffffffffffffffffffffffffffffffffff1673ffffffffffffffffffffffffffffffffffffffff168152602001600282015481526020016003820160009054906101000a900473ffffffffffffffffffffffffffffffffffffffff1673ffffffffffffffffffffffffffffffffffffffff1673ffffffffffffffffffffffffffffffffffffffff168152602001600482015481526020016005820160009054906101000a900460ff16151515158152602001600682015481526020016007820154815250509050611cd9565b6040518061010001604052808381526020013373ffffffffffffffffffffffffffffffffffffffff1681526020018981526020018b73ffffffffffffffffffffffffffffffffffffffff1681526020018a815260200160011515815260200182600001518152602001600260008d73ffffffffffffffffffffffffffffffffffffffff1673ffffffffffffffffffffffffffffffffffffffff16815260200190815260200160002060008460e00151815260200190815260200160002060000154815250600260008c73ffffffffffffffffffffffffffffffffffffffff1673ffffffffffffffffffffffffffffffffffffffff16815260200190815260200160002060008481526020019081526020016000206000820151816000015560208201518160010160006101000a81548173ffffffffffffffffffffffffffffffffffffffff021916908373ffffffffffffffffffffffffffffffffffffffff1602179055506040820151816002015560608201518160030160006101000a81548173ffffffffffffffffffffffffffffffffffffffff021916908373ffffffffffffffffffffffffffffffffffffffff1602179055506080820151816004015560a08201518160050160006101000a81548160ff02191690831515021790555060c0820151816006015560e0820151816007015590505081600260008c73ffffffffffffffffffffffffffffffffffffffff1673ffffffffffffffffffffffffffffffffffffffff16815260200190815260200160002060008360e0015181526020019081526020016000206006018190555081600260008c73ffffffffffffffffffffffffffffffffffffffff1673ffffffffffffffffffffffffffffffffffffffff16815260200190815260200160002060008360000151815260200190815260200160002060070181905550816006819055506121116001613719565b7fac02bddb11496040daa8922936c8225afb05076045aabe9223bdd4e817a9b9938260405161214091906157ed565b60405180910390a150505050505050505050565b600161215e61345a565b33600160008273ffffffffffffffffffffffffffffffffffffffff1673ffffffffffffffffffffffffffffffffffffffff16815260200190815260200160002060030160009054906101000a900460ff166121ee576040517f08c379a00000000000000000000000000000000000000000000000000000000081526004016121e5906152ff565b60405180910390fd5b60013385600160038111156122065761220561531f565b5b8360038111156122195761221861531f565b5b03612337578173ffffffffffffffffffffffffffffffffffffffff16600260006004600085815260200190815260200160002060009054906101000a900473ffffffffffffffffffffffffffffffffffffffff1673ffffffffffffffffffffffffffffffffffffffff1673ffffffffffffffffffffffffffffffffffffffff168152602001908152602001600020600083815260200190815260200160002060010160009054906101000a900473ffffffffffffffffffffffffffffffffffffffff1673ffffffffffffffffffffffffffffffffffffffff1614612332576040517f08c379a000000000000000000000000000000000000000000000000000000000815260040161232990615478565b60405180910390fd5b6123dc565b8173ffffffffffffffffffffffffffffffffffffffff166003600083815260200190815260200160002060010160009054906101000a900473ffffffffffffffffffffffffffffffffffffffff1673ffffffffffffffffffffffffffffffffffffffff16146123db576040517f08c379a00000000000000000000000000000000000000000000000000000000081526004016123d29061550a565b60405180910390fd5b5b6001600260038111156123f2576123f161531f565b5b8160038111156124055761240461531f565b5b14801561241f5750600760029054906101000a900460ff16155b806124675750600160038111156124395761243861531f565b5b81600381111561244c5761244b61531f565b5b1480156124665750600760019054906101000a900460ff16155b5b806124af5750600060038111156124815761248061531f565b5b8160038111156124945761249361531f565b5b1480156124ae5750600760009054906101000a900460ff16155b5b8061250e57506003808111156124c8576124c761531f565b5b8160038111156124db576124da61531f565b5b14801561250d5750600760019054906101000a900460ff16801561250b5750600760009054906101000a900460ff165b155b5b61254d576040517f08c379a0000000000000000000000000000000000000000000000000000000008152600401612544906153c0565b60405180910390fd5b8660026000600460008c815260200190815260200160002060009054906101000a900473ffffffffffffffffffffffffffffffffffffffff1673ffffffffffffffffffffffffffffffffffffffff1673ffffffffffffffffffffffffffffffffffffffff16815260200190815260200160002060008a81526020019081526020016000206002015411612615576040517f08c379a000000000000000000000000000000000000000000000000000000000815260040161260c90615b9a565b60405180910390fd5b61261f60016135de565b8660026000600460008c815260200190815260200160002060009054906101000a900473ffffffffffffffffffffffffffffffffffffffff1673ffffffffffffffffffffffffffffffffffffffff1673ffffffffffffffffffffffffffffffffffffffff16815260200190815260200160002060008a8152602001908152602001600020600201819055506126b46001613719565b5050505050505050565b60036126c861345a565b33600160008273ffffffffffffffffffffffffffffffffffffffff1673ffffffffffffffffffffffffffffffffffffffff16815260200190815260200160002060030160009054906101000a900460ff16612758576040517f08c379a000000000000000000000000000000000000000000000000000000000815260040161274f906152ff565b60405180910390fd5b60036002600381111561276e5761276d61531f565b5b8160038111156127815761278061531f565b5b14801561279b5750600760029054906101000a900460ff16155b806127e35750600160038111156127b5576127b461531f565b5b8160038111156127c8576127c761531f565b5b1480156127e25750600760019054906101000a900460ff16155b5b8061282b5750600060038111156127fd576127fc61531f565b5b8160038111156128105761280f61531f565b5b14801561282a5750600760009054906101000a900460ff16155b5b8061288a57506003808111156128445761284361531f565b5b8160038111156128575761285661531f565b5b1480156128895750600760019054906101000a900460ff1680156128875750600760009054906101000a900460ff165b155b5b6128c9576040517f08c379a00000000000000000000000000000000000000000000000000000000081526004016128c0906153c0565b60405180910390fd5b6128d360036135de565b6128db613f04565b6128e56003613719565b505050565b60026128f461345a565b33600160008273ffffffffffffffffffffffffffffffffffffffff1673ffffffffffffffffffffffffffffffffffffffff16815260200190815260200160002060030160009054906101000a900460ff16612984576040517f08c379a000000000000000000000000000000000000000000000000000000000815260040161297b906152ff565b60405180910390fd5b60006002600381111561299a5761299961531f565b5b8160038111156129ad576129ac61531f565b5b1480156129c75750600760029054906101000a900460ff16155b80612a0f5750600160038111156129e1576129e061531f565b5b8160038111156129f4576129f361531f565b5b148015612a0e5750600760019054906101000a900460ff16155b5b80612a57575060006003811115612a2957612a2861531f565b5b816003811115612a3c57612a3b61531f565b5b148015612a565750600760009054906101000a900460ff16155b5b80612ab65750600380811115612a7057612a6f61531f565b5b816003811115612a8357612a8261531f565b5b148015612ab55750600760019054906101000a900460ff168015612ab35750600760009054906101000a900460ff165b155b5b612af5576040517f08c379a0000000000000000000000000000000000000000000000000000000008152600401612aec906153c0565b60405180910390fd5b612aff60006135de565b600060036000600554815260200190815260200160002060405180610140016040529081600082015481526020016001820160009054906101000a900473ffffffffffffffffffffffffffffffffffffffff1673ffffffffffffffffffffffffffffffffffffffff1673ffffffffffffffffffffffffffffffffffffffff168152602001600282015481526020016003820160009054906101000a900460ff166002811115612bb157612bb061531f565b5b6002811115612bc357612bc261531f565b5b81526020016003820160019054906101000a900460ff161515151581526020016003820160029054906101000a900473ffffffffffffffffffffffffffffffffffffffff1673ffffffffffffffffffffffffffffffffffffffff1673ffffffffffffffffffffffffffffffffffffffff16815260200160048201548152602001600582015481526020016006820154815260200160078201548152505090506000612c6e6000613d48565b90506040518061014001604052808281526020013373ffffffffffffffffffffffffffffffffffffffff16815260200187815260200160006002811115612cb857612cb761531f565b5b8152602001600115158152602001600073ffffffffffffffffffffffffffffffffffffffff16815260200160008152602001600081526020018360000151815260200160036000856101200151815260200190815260200160002060000154815250600360008381526020019081526020016000206000820151816000015560208201518160010160006101000a81548173ffffffffffffffffffffffffffffffffffffffff021916908373ffffffffffffffffffffffffffffffffffffffff1602179055506040820151816002015560608201518160030160006101000a81548160ff02191690836002811115612db357612db261531f565b5b021790555060808201518160030160016101000a81548160ff02191690831515021790555060a08201518160030160026101000a81548173ffffffffffffffffffffffffffffffffffffffff021916908373ffffffffffffffffffffffffffffffffffffffff16021790555060c0820151816004015560e082015181600501556101008201518160060155610120820151816007015590505080600360008461012001518152602001908152602001600020600601819055508060036000846000015181526020019081526020016000206007018190555080600581905550612e9c6000613719565b7f9fe7e26c8f21266842204c92fb01af07ee3c12d7ec65c487c3b7d24e29ea66ce81604051612ecb91906157ed565b60405180910390a1505050505050565b33600160008273ffffffffffffffffffffffffffffffffffffffff1673ffffffffffffffffffffffffffffffffffffffff16815260200190815260200160002060030160009054906101000a900460ff1615612f6c576040517f08c379a0000000000000000000000000000000000000000000000000000000008152600401612f63906159e4565b60405180910390fd5b6000600160003373ffffffffffffffffffffffffffffffffffffffff1673ffffffffffffffffffffffffffffffffffffffff16815260200190815260200160002090506000816000018190555060018160030160006101000a81548160ff021916908315150217905550612fe03334613839565b612fed33858560016148c4565b50505050565b6000612ffd61345a565b33600160008273ffffffffffffffffffffffffffffffffffffffff1673ffffffffffffffffffffffffffffffffffffffff16815260200190815260200160002060030160009054906101000a900460ff1661308d576040517f08c379a0000000000000000000000000000000000000000000000000000000008152600401613084906152ff565b60405180910390fd5b61309a33858560016148c4565b50505050565b60006130aa61345a565b33600160008273ffffffffffffffffffffffffffffffffffffffff1673ffffffffffffffffffffffffffffffffffffffff16815260200190815260200160002060030160009054906101000a900460ff1661313a576040517f08c379a0000000000000000000000000000000000000000000000000000000008152600401613131906152ff565b60405180910390fd5b33846000600160008473ffffffffffffffffffffffffffffffffffffffff1673ffffffffffffffffffffffffffffffffffffffff16815260200190815260200160002060020160008373ffffffffffffffffffffffffffffffffffffffff1673ffffffffffffffffffffffffffffffffffffffff16815260200190815260200160002054116131fe576040517f08c379a00000000000000000000000000000000000000000000000000000000081526004016131f590615a76565b60405180910390fd5b60028060038111156132135761321261531f565b5b8160038111156132265761322561531f565b5b1480156132405750600760029054906101000a900460ff16155b8061328857506001600381111561325a5761325961531f565b5b81600381111561326d5761326c61531f565b5b1480156132875750600760019054906101000a900460ff16155b5b806132d05750600060038111156132a2576132a161531f565b5b8160038111156132b5576132b461531f565b5b1480156132cf5750600760009054906101000a900460ff16155b5b8061332f57506003808111156132e9576132e861531f565b5b8160038111156132fc576132fb61531f565b5b14801561332e5750600760019054906101000a900460ff16801561332c5750600760009054906101000a900460ff165b155b5b61336e576040517f08c379a0000000000000000000000000000000000000000000000000000000008152600401613365906153c0565b60405180910390fd5b61337860026135de565b85600160003373ffffffffffffffffffffffffffffffffffffffff1673ffffffffffffffffffffffffffffffffffffffff16815260200190815260200160002060020160008973ffffffffffffffffffffffffffffffffffffffff1673ffffffffffffffffffffffffffffffffffffffff16815260200190815260200160002054101561343a576040517f08c379a000000000000000000000000000000000000000000000000000000000815260040161343190615b08565b60405180910390fd5b61344733888860006148c4565b6134516002613719565b50505050505050565b6000603c7f00000000000000000000000000000000000000000000000000000000000000006134899190615be9565b4261349491906156a2565b9050600061012c826134a69190615c1a565b905060006004826134b79190615c1a565b90508060008054906101000a900460ff1660038111156134da576134d961531f565b5b146135d957600081101580156134f05750600481105b6134fd576134fc615c4b565b5b600081036135345760008060006101000a81548160ff0219169083600381111561352a5761352961531f565b5b02179055506135d8565b6001810361356b5760016000806101000a81548160ff021916908360038111156135615761356061531f565b5b02179055506135d7565b600281036135a25760026000806101000a81548160ff021916908360038111156135985761359761531f565b5b02179055506135d6565b600381036135d55760036000806101000a81548160ff021916908360038111156135cf576135ce61531f565b5b02179055505b5b5b5b5b505050565b600160038111156135f2576135f161531f565b5b8160038111156136055761360461531f565b5b0361362a576001600760016101000a81548160ff021916908315150217905550613716565b6000600381111561363e5761363d61531f565b5b8160038111156136515761365061531f565b5b03613676576001600760006101000a81548160ff021916908315150217905550613715565b6002600381111561368a5761368961531f565b5b81600381111561369d5761369c61531f565b5b036136c2576001600760026101000a81548160ff021916908315150217905550613714565b6001600760026101000a81548160ff0219169083151502179055506001600760016101000a81548160ff0219169083151502179055506001600760006101000a81548160ff0219169083151502179055505b5b5b50565b6001600381111561372d5761372c61531f565b5b8160038111156137405761373f61531f565b5b03613765576000600760016101000a81548160ff021916908315150217905550613836565b600060038111156137795761377861531f565b5b81600381111561378c5761378b61531f565b5b036137b1576000600760006101000a81548160ff021916908315150217905550613835565b600260038111156137c5576137c461531f565b5b8160038111156137d8576137d761531f565b5b036137fd576000600760026101000a81548160ff021916908315150217905550613834565b6000600760006101000a81548160ff0219169083151502179055506000600760016101000a81548160ff0219169083151502179055505b5b5b50565b80600160008473ffffffffffffffffffffffffffffffffffffffff1673ffffffffffffffffffffffffffffffffffffffff168152602001908152602001600020600001600082825461388b91906157aa565b925050819055505050565b600160038111156138aa576138a961531f565b5b8260038111156138bd576138bc61531f565b5b03613c0f576000600260006004600085815260200190815260200160002060009054906101000a900473ffffffffffffffffffffffffffffffffffffffff1673ffffffffffffffffffffffffffffffffffffffff1673ffffffffffffffffffffffffffffffffffffffff16815260200190815260200160002060008381526020019081526020016000206006015490506000600260006004600086815260200190815260200160002060009054906101000a900473ffffffffffffffffffffffffffffffffffffffff1673ffffffffffffffffffffffffffffffffffffffff1673ffffffffffffffffffffffffffffffffffffffff168152602001908152602001600020600084815260200190815260200160002060070154905080600260006004600086815260200190815260200160002060009054906101000a900473ffffffffffffffffffffffffffffffffffffffff1673ffffffffffffffffffffffffffffffffffffffff1673ffffffffffffffffffffffffffffffffffffffff1681526020019081526020016000206000848152602001908152602001600020600701819055506000811115613af85781600260006004600085815260200190815260200160002060009054906101000a900473ffffffffffffffffffffffffffffffffffffffff1673ffffffffffffffffffffffffffffffffffffffff1673ffffffffffffffffffffffffffffffffffffffff1681526020019081526020016000206000838152602001908152602001600020600601819055505b600260006004600086815260200190815260200160002060009054906101000a900473ffffffffffffffffffffffffffffffffffffffff1673ffffffffffffffffffffffffffffffffffffffff1673ffffffffffffffffffffffffffffffffffffffff16815260200190815260200160002060008481526020019081526020016000206000808201600090556001820160006101000a81549073ffffffffffffffffffffffffffffffffffffffff021916905560028201600090556003820160006101000a81549073ffffffffffffffffffffffffffffffffffffffff021916905560048201600090556005820160006101000a81549060ff02191690556006820160009055600782016000905550505050613d44565b6000600360008381526020019081526020016000206006015490506000600360008481526020019081526020016000206007015490508060036000848152602001908152602001600020600701819055506000811115613c85578160036000838152602001908152602001600020600601819055505b600360008481526020019081526020016000206000808201600090556001820160006101000a81549073ffffffffffffffffffffffffffffffffffffffff021916905560028201600090556003820160006101000a81549060ff02191690556003820160016101000a81549060ff02191690556003820160026101000a81549073ffffffffffffffffffffffffffffffffffffffff02191690556004820160009055600582016000905560068201600090556007820160009055505050505b5050565b60008060006003811115613d5f57613d5e61531f565b5b836003811115613d7257613d7161531f565b5b149050600081613d8457600654613d88565b6005545b90506000805b81613ef857600183613da091906157aa565b9250827fffffffffffffffffffffffffffffffffffffffffffffffffffffffffffffffff03613e0f578015613e0a576040517f08c379a0000000000000000000000000000000000000000000000000000000008152600401613e0190615cc6565b60405180910390fd5b600190505b8315613e4e576003600084815260200190815260200160002060030160019054906101000a900460ff1615613e445781613e47565b60015b9150613ef3565b600260006004600086815260200190815260200160002060009054906101000a900473ffffffffffffffffffffffffffffffffffffffff1673ffffffffffffffffffffffffffffffffffffffff1673ffffffffffffffffffffffffffffffffffffffff168152602001908152602001600020600084815260200190815260200160002060050160009054906101000a900460ff1615613eed5781613ef0565b60015b91505b613d8e565b82945050505050919050565b60006003600080815260200190815260200160002060405180610140016040529081600082015481526020016001820160009054906101000a900473ffffffffffffffffffffffffffffffffffffffff1673ffffffffffffffffffffffffffffffffffffffff1673ffffffffffffffffffffffffffffffffffffffff168152602001600282015481526020016003820160009054906101000a900460ff166002811115613fb457613fb361531f565b5b6002811115613fc657613fc561531f565b5b81526020016003820160019054906101000a900460ff161515151581526020016003820160029054906101000a900473ffffffffffffffffffffffffffffffffffffffff1673ffffffffffffffffffffffffffffffffffffffff1673ffffffffffffffffffffffffffffffffffffffff16815260200160048201548152602001600582015481526020016006820154815260200160078201548152505090505b6001156148c157806080015180156140a657506001600281111561408d5761408c61531f565b5b816060015160028111156140a4576140a361531f565b5b145b1561474a576000600260008360a0015173ffffffffffffffffffffffffffffffffffffffff1673ffffffffffffffffffffffffffffffffffffffff168152602001908152602001600020600080815260200190815260200160002060405180610100016040529081600082015481526020016001820160009054906101000a900473ffffffffffffffffffffffffffffffffffffffff1673ffffffffffffffffffffffffffffffffffffffff1673ffffffffffffffffffffffffffffffffffffffff168152602001600282015481526020016003820160009054906101000a900473ffffffffffffffffffffffffffffffffffffffff1673ffffffffffffffffffffffffffffffffffffffff1673ffffffffffffffffffffffffffffffffffffffff168152602001600482015481526020016005820160009054906101000a900460ff161515151581526020016006820154815260200160078201548152505090505b600115614748578060a00151801561422957508160c00151816040015111155b156145d6578160e0015181608001510361428b5760008160800151826040015161425391906156d6565b905061426782848460800151846000614c10565b61427660018360000151613896565b61428560008460000151613896565b50614748565b8160e00151816080015111156143e55760008260e0015182604001516142b191906156d6565b905061435a82848560e00151848760e0015160016000896020015173ffffffffffffffffffffffffffffffffffffffff1673ffffffffffffffffffffffffffffffffffffffff1681526020019081526020016000206002016000896060015173ffffffffffffffffffffffffffffffffffffffff1673ffffffffffffffffffffffffffffffffffffffff1681526020019081526020016000205461435591906156a2565b614c10565b8260e00151600260008560a0015173ffffffffffffffffffffffffffffffffffffffff1673ffffffffffffffffffffffffffffffffffffffff16815260200190815260200160002060008460000151815260200190815260200160002060040160008282546143c991906156a2565b925050819055506143df60008460000151613896565b50614748565b80608001518260e0015111156144565760008160800151826040015161440b91906156d6565b905061441f82848460800151846000614c10565b81608001516003600085600001518152602001908152602001600020600501600082825461444d91906156a2565b92505081905550505b60008160e00151031561474857600260008360a0015173ffffffffffffffffffffffffffffffffffffffff1673ffffffffffffffffffffffffffffffffffffffff16815260200190815260200160002060008260e00151815260200190815260200160002060405180610100016040529081600082015481526020016001820160009054906101000a900473ffffffffffffffffffffffffffffffffffffffff1673ffffffffffffffffffffffffffffffffffffffff1673ffffffffffffffffffffffffffffffffffffffff168152602001600282015481526020016003820160009054906101000a900473ffffffffffffffffffffffffffffffffffffffff1673ffffffffffffffffffffffffffffffffffffffff1673ffffffffffffffffffffffffffffffffffffffff168152602001600482015481526020016005820160009054906101000a900460ff161515151581526020016006820154815260200160078201548152505090506145d160018260000151613896565b614743565b60008160e00151031561474857600260008360a0015173ffffffffffffffffffffffffffffffffffffffff1673ffffffffffffffffffffffffffffffffffffffff16815260200190815260200160002060008260e00151815260200190815260200160002060405180610100016040529081600082015481526020016001820160009054906101000a900473ffffffffffffffffffffffffffffffffffffffff1673ffffffffffffffffffffffffffffffffffffffff1673ffffffffffffffffffffffffffffffffffffffff168152602001600282015481526020016003820160009054906101000a900473ffffffffffffffffffffffffffffffffffffffff1673ffffffffffffffffffffffffffffffffffffffff1673ffffffffffffffffffffffffffffffffffffffff168152602001600482015481526020016005820160009054906101000a900460ff161515151581526020016006820154815260200160078201548152505090505b614209565b505b600081610120015103156148c15760036000826101200151815260200190815260200160002060405180610140016040529081600082015481526020016001820160009054906101000a900473ffffffffffffffffffffffffffffffffffffffff1673ffffffffffffffffffffffffffffffffffffffff1673ffffffffffffffffffffffffffffffffffffffff168152602001600282015481526020016003820160009054906101000a900460ff16600281111561480b5761480a61531f565b5b600281111561481d5761481c61531f565b5b81526020016003820160019054906101000a900460ff161515151581526020016003820160029054906101000a900473ffffffffffffffffffffffffffffffffffffffff1673ffffffffffffffffffffffffffffffffffffffff1673ffffffffffffffffffffffffffffffffffffffff1681526020016004820154815260200160058201548152602001600682015481526020016007820154815250509050614066565b50565b60008115614a29578373ffffffffffffffffffffffffffffffffffffffff166323b872dd8630866040518463ffffffff1660e01b815260040161490993929190615cf5565b6020604051808303816000875af1158015614928573d6000803e3d6000fd5b505050506040513d601f19601f8201168201806040525081019061494c9190615d64565b90508061498e576040517f08c379a000000000000000000000000000000000000000000000000000000000815260040161498590615ddd565b60405180910390fd5b82600160008773ffffffffffffffffffffffffffffffffffffffff1673ffffffffffffffffffffffffffffffffffffffff16815260200190815260200160002060020160008673ffffffffffffffffffffffffffffffffffffffff1673ffffffffffffffffffffffffffffffffffffffff1681526020019081526020016000206000828254614a1d91906157aa565b92505081905550614c09565b8373ffffffffffffffffffffffffffffffffffffffff1663095ea7b386856040518363ffffffff1660e01b8152600401614a64929190615dfd565b6020604051808303816000875af1158015614a83573d6000803e3d6000fd5b505050506040513d601f19601f82011682018060405250810190614aa79190615d64565b90508373ffffffffffffffffffffffffffffffffffffffff1663a9059cbb86856040518363ffffffff1660e01b8152600401614ae4929190615dfd565b6020604051808303816000875af1158015614b03573d6000803e3d6000fd5b505050506040513d601f19601f82011682018060405250810190614b279190615d64565b8015614b305750805b905080614b72576040517f08c379a0000000000000000000000000000000000000000000000000000000008152600401614b6990615e72565b60405180910390fd5b82600160008773ffffffffffffffffffffffffffffffffffffffff1673ffffffffffffffffffffffffffffffffffffffff16815260200190815260200160002060020160008673ffffffffffffffffffffffffffffffffffffffff1673ffffffffffffffffffffffffffffffffffffffff1681526020019081526020016000206000828254614c0191906156a2565b925050819055505b5050505050565b8160016000866020015173ffffffffffffffffffffffffffffffffffffffff1673ffffffffffffffffffffffffffffffffffffffff168152602001908152602001600020600001541015614c99576040517f08c379a0000000000000000000000000000000000000000000000000000000008152600401614c9090615f04565b60405180910390fd5b8160016000866020015173ffffffffffffffffffffffffffffffffffffffff1673ffffffffffffffffffffffffffffffffffffffff1681526020019081526020016000206001016000828254614cef91906156a2565b925050819055508160016000866020015173ffffffffffffffffffffffffffffffffffffffff1673ffffffffffffffffffffffffffffffffffffffff1681526020019081526020016000206000016000828254614d4c91906156a2565b925050819055508260016000866020015173ffffffffffffffffffffffffffffffffffffffff1673ffffffffffffffffffffffffffffffffffffffff1681526020019081526020016000206002016000876060015173ffffffffffffffffffffffffffffffffffffffff1673ffffffffffffffffffffffffffffffffffffffff168152602001908152602001600020819055508160016000876020015173ffffffffffffffffffffffffffffffffffffffff1673ffffffffffffffffffffffffffffffffffffffff1681526020019081526020016000206000016000828254614e3591906157aa565b925050819055508060016000876020015173ffffffffffffffffffffffffffffffffffffffff1673ffffffffffffffffffffffffffffffffffffffff1681526020019081526020016000206002016000876060015173ffffffffffffffffffffffffffffffffffffffff1673ffffffffffffffffffffffffffffffffffffffff168152602001908152602001600020819055507f66adb6b61689eb20abb744cb25721504c5861b418a77988e230daee31f7187e260016000876020015173ffffffffffffffffffffffffffffffffffffffff1673ffffffffffffffffffffffffffffffffffffffff16815260200190815260200160002060000154604051614f3d91906157ed565b60405180910390a17f4ace7b1e770e311ef627f6c025740dfe123b78f17a478a5878b0a34777ff5d688560200151604051614f789190615f24565b60405180910390a15050505050565b600080fd5b6000819050919050565b614f9f81614f8c565b8114614faa57600080fd5b50565b600081359050614fbc81614f96565b92915050565b600073ffffffffffffffffffffffffffffffffffffffff82169050919050565b6000614fed82614fc2565b9050919050565b614ffd81614fe2565b811461500857600080fd5b50565b60008135905061501a81614ff4565b92915050565b600080600080600060a0868803121561503c5761503b614f87565b5b600061504a88828901614fad565b955050602061505b8882890161500b565b945050604061506c88828901614fad565b935050606061507d88828901614fad565b925050608061508e88828901614fad565b9150509295509295909350565b60006150a682614fc2565b9050919050565b6150b68161509b565b81146150c157600080fd5b50565b6000813590506150d3816150ad565b92915050565b600080604083850312156150f0576150ef614f87565b5b60006150fe858286016150c4565b925050602061510f85828601614fad565b9150509250929050565b60006020828403121561512f5761512e614f87565b5b600061513d84828501614fad565b91505092915050565b60008060006060848603121561515f5761515e614f87565b5b600061516d8682870161500b565b935050602061517e86828701614fad565b925050604061518f86828701614fad565b9150509250925092565b600080604083850312156151b0576151af614f87565b5b60006151be85828601614fad565b92505060206151cf85828601614fad565b9150509250929050565b6000819050919050565b6151ec816151d9565b81146151f757600080fd5b50565b600081359050615209816151e3565b92915050565b60006020828403121561522557615224614f87565b5b6000615233848285016151fa565b91505092915050565b6000806040838503121561525357615252614f87565b5b60006152618582860161500b565b925050602061527285828601614fad565b9150509250929050565b600082825260208201905092915050565b7f4163636f756e742070617961626c6520646f6573206e6f742065786973742e2060008201527f416374696f6e206e6f7420616c6c6f7765642e00000000000000000000000000602082015250565b60006152e960338361527c565b91506152f48261528d565b604082019050919050565b60006020820190508181036000830152615318816152dc565b9050919050565b7f4e487b7100000000000000000000000000000000000000000000000000000000600052602160045260246000fd5b7f43616e6e6f742061637175697265206c6f636b2e204f7065726174696f6e206660008201527f61696c7572652e00000000000000000000000000000000000000000000000000602082015250565b60006153aa60278361527c565b91506153b58261534e565b604082019050919050565b600060208201905081810360008301526153d98161539d565b9050919050565b7f5573657220686173206e6f2073656c6c206f72646572207769746820636f727260008201527f6573706f6e64696e672069642e20416374696f6e206e6f7420616c6c6f77656460208201527f2e00000000000000000000000000000000000000000000000000000000000000604082015250565b600061546260418361527c565b915061546d826153e0565b606082019050919050565b6000602082019050818103600083015261549181615455565b9050919050565b7f5573657220686173206e6f20627579206f72646572207769746820636f72726560008201527f73706f6e64696e672069642e20416374696f6e206e6f7420616c6c6f7765642e602082015250565b60006154f460408361527c565b91506154ff82615498565b604082019050919050565b60006020820190508181036000830152615523816154e7565b9050919050565b60008160601b9050919050565b60006155428261552a565b9050919050565b600061555482615537565b9050919050565b61556c61556782614fe2565b615549565b82525050565b6000819050919050565b61558d61558882614f8c565b615572565b82525050565b600061559f828761555b565b6014820191506155af828661557c565b6020820191506155bf828561557c565b6020820191506155cf828461557c565b60208201915081905095945050505050565b7f427579206f72646572206d6973736d617463682e2043616e6e6f74206f70656e60008201527f20646976657267696e67206269642e0000000000000000000000000000000000602082015250565b600061563d602f8361527c565b9150615648826155e1565b604082019050919050565b6000602082019050818103600083015261566c81615630565b9050919050565b7f4e487b7100000000000000000000000000000000000000000000000000000000600052601160045260246000fd5b60006156ad82614f8c565b91506156b883614f8c565b92508282039050818111156156d0576156cf615673565b5b92915050565b60006156e182614f8c565b91506156ec83614f8c565b92508282026156fa81614f8c565b9150828204841483151761571157615710615673565b5b5092915050565b7f5573657220697320756e61626c6520746f20736572766963652074686973206260008201527f69642e2043616e6e6f74206f70656e206269642e000000000000000000000000602082015250565b600061577460348361527c565b915061577f82615718565b604082019050919050565b600060208201905081810360008301526157a381615767565b9050919050565b60006157b582614f8c565b91506157c083614f8c565b92508282019050808211156157d8576157d7615673565b5b92915050565b6157e781614f8c565b82525050565b600060208201905061580260008301846157de565b92915050565b7f496e73756666696369656e742062616c616e63652e20416374696f6e206e6f7460008201527f20616c6c6f7765642e0000000000000000000000000000000000000000000000602082015250565b600061586460298361527c565b915061586f82615808565b604082019050919050565b6000602082019050818103600083015261589381615857565b9050919050565b600081905092915050565b50565b60006158b560008361589a565b91506158c0826158a5565b600082019050919050565b60006158d6826158a8565b9150819050919050565b7f436f756c64206e6f74207472616e73666572204554482e20456772657373206660008201527f61696c7572652e00000000000000000000000000000000000000000000000000602082015250565b600061593c60278361527c565b9150615947826158e0565b604082019050919050565b6000602082019050818103600083015261596b8161592f565b9050919050565b7f4163636f756e7420616c7265616479206578697374732e20416374696f6e206e60008201527f6f7420616c6c6f7765642e000000000000000000000000000000000000000000602082015250565b60006159ce602b8361527c565b91506159d982615972565b604082019050919050565b600060208201905081810360008301526159fd816159c1565b9050919050565b7f5573657220646f6573206e6f74206f776e20746f6b656e2e20416374696f6e2060008201527f6e6f7420616c6c6f7765642e0000000000000000000000000000000000000000602082015250565b6000615a60602c8361527c565b9150615a6b82615a04565b604082019050919050565b60006020820190508181036000830152615a8f81615a53565b9050919050565b7f5573657220646f6573206e6f74206f776e20656e6f756768206f66207468652060008201527f73706563696669656420746f6b656e2e00000000000000000000000000000000602082015250565b6000615af260308361527c565b9150615afd82615a96565b604082019050919050565b60006020820190508181036000830152615b2181615ae5565b9050919050565b7f4e65772070726963652067726561746572207468616e2063757272656e74207360008201527f656c6c2070726963650000000000000000000000000000000000000000000000602082015250565b6000615b8460298361527c565b9150615b8f82615b28565b604082019050919050565b60006020820190508181036000830152615bb381615b77565b9050919050565b7f4e487b7100000000000000000000000000000000000000000000000000000000600052601260045260246000fd5b6000615bf482614f8c565b9150615bff83614f8c565b925082615c0f57615c0e615bba565b5b828204905092915050565b6000615c2582614f8c565b9150615c3083614f8c565b925082615c4057615c3f615bba565b5b828206905092915050565b7f4e487b7100000000000000000000000000000000000000000000000000000000600052600160045260246000fd5b7f4d6178696d756d206f72646572206c696d697420726561636865642e00000000600082015250565b6000615cb0601c8361527c565b9150615cbb82615c7a565b602082019050919050565b60006020820190508181036000830152615cdf81615ca3565b9050919050565b615cef81614fe2565b82525050565b6000606082019050615d0a6000830186615ce6565b615d176020830185615ce6565b615d2460408301846157de565b949350505050565b60008115159050919050565b615d4181615d2c565b8114615d4c57600080fd5b50565b600081519050615d5e81615d38565b92915050565b600060208284031215615d7a57615d79614f87565b5b6000615d8884828501615d4f565b91505092915050565b7f436f756c64206e6f74207472616e7366657220746f6b656e20696e2e00000000600082015250565b6000615dc7601c8361527c565b9150615dd282615d91565b602082019050919050565b60006020820190508181036000830152615df681615dba565b9050919050565b6000604082019050615e126000830185615ce6565b615e1f60208301846157de565b9392505050565b7f436f756c64206e6f74207472616e7366657220746f6b656e206f75742e000000600082015250565b6000615e5c601d8361527c565b9150615e6782615e26565b602082019050919050565b60006020820190508181036000830152615e8b81615e4f565b9050919050565b7f5573657220646f6573206e6f74206861766520656e6f7567682066756e64732060008201527f746f2065786563757465207472616e73616374696f6e2e000000000000000000602082015250565b6000615eee60378361527c565b9150615ef982615e92565b604082019050919050565b60006020820190508181036000830152615f1d81615ee1565b9050919050565b6000602082019050615f396000830184615ce6565b9291505056fea26469706673582212205c0f694766d73fddd82a10b112ecff27108d1cfe5ff925b050260af214cdd25e64736f6c63430008130033",
  "immutableReferences": {
    "904": [
      {
        "length": 32,
        "start": 13408
      }
    ]
  },
  "source": "// SPDX-License-Identifier: MIT\npragma solidity >=0.4.22 <0.9.0;\n\nimport \"@openzeppelin/contracts/token/ERC20/presets/ERC20PresetFixedSupply.sol\";\n\n/// @title DutchAuctionHouse\ncontract DutchAuctionHouse {\n    event SellID(uint orderId);\n    event BuyID(uint orderId);\n    event DebugBuy(BuyOrder b);\n    event DebugSell(SellOrder s);\n    event DebugSender(address a);\n    event DebugInt(uint i);\n\n    enum Modes {\n        DepositWithdrawl,\n        Offer,\n        BidOpening,\n        Matching\n    }\n\n    enum OP {\n        Buy,\n        Sell,\n        Account,\n        Global\n    }\n\n    struct Account {\n        uint balance; // total ETH held\n        uint debtAccrued; // total amount of possible debt owing\n        mapping(address => uint) tokens; // owned tokens\n        bool exists; // flag for existence\n    }\n\n    // Buy Orders exist on the buySideExchange.\n    struct SellOrder {\n        uint id;\n        address owner;\n        uint price;\n        address token;\n        uint amount;\n        bool exists;\n        // traversal variables\n        uint previous;\n        uint next;\n    }\n\n    enum OrderStatus {\n        Closed,\n        Open,\n        Genesis\n    }\n\n    // A Buy Order can be a blind bid or an open bid.\n    // Buy Orders exist on the buySideExchange.\n    struct BuyOrder {\n        uint id;\n        address owner;\n        bytes32 blindBid;\n        OrderStatus status;\n        bool exists;\n        // open bid state variables\n        address token;\n        uint price;\n        uint amount;\n        // traversal variables\n        uint previous;\n        uint next;\n    }\n\n    // Mode consts\n    uint private constant DURATION = 5 minutes;\n    uint private constant N_MODES = 4;\n\n    // Util consts\n    address private constant NONE_ADDR = address(0x0);\n    bytes32 private constant NONE_BID = bytes32(0x0);\n    uint private constant NONE = 0;\n    uint private constant GENESIS = 0;\n\n    uint private immutable creationTime;\n    Modes private mode = Modes.DepositWithdrawl;\n\n    // User Accounts brokering ETH and tokens deposits\n    mapping(address => Account) userAccounts;\n    // Exchange tracking sell orders of a particular token type\n    mapping(address => mapping(uint => SellOrder)) sellSideExchange;\n    // Exchange tracking buy orders\n    mapping(uint => BuyOrder) buySideExchange;\n    // Index mapping ids to token types\n    mapping(uint => address) sellSideIndex;\n\n    // Dynamic order ids\n    uint private buyOrderId = 1;\n    uint private sellOrderId = 0;\n\n    // Exchange locks\n    bool private buyLock = false;\n    bool private sellLock = false;\n    bool private accountLock = false;\n\n    constructor() {\n        // initialise creation time\n        creationTime = block.timestamp;\n    }\n\n    modifier during(Modes _mode) {\n        poll_mode();\n        // require(mode == _mode, \"Action not allowed during this mode.\");\n        _;\n    }\n\n    modifier require_unique(address _account) {\n        require(\n            !userAccounts[_account].exists,\n            \"Account already exists. Action not allowed.\"\n        );\n        _;\n    }\n\n    modifier require_account(address _account) {\n        require(\n            userAccounts[_account].exists,\n            \"Account payable does not exist. Action not allowed.\"\n        );\n        _;\n    }\n\n    modifier require_token_ownership(address _account, address _tokenAddress) {\n        require(\n            userAccounts[_account].tokens[_tokenAddress] > 0,\n            \"User does not own token. Action not allowed.\"\n        );\n        _;\n    }\n\n    modifier require_order_ownership(\n        OP _operation,\n        address _account,\n        uint _id\n    ) {\n        if (_operation == OP.Sell) {\n            require(\n                sellSideExchange[sellSideIndex[_id]][_id].owner == _account,\n                \"User has no sell order with corresponding id. Action not allowed.\"\n            );\n        } else {\n            require(\n                buySideExchange[_id].owner == _account,\n                \"User has no buy order with corresponding id. Action not allowed.\"\n            );\n        }\n\n        _;\n    }\n\n    modifier require_mutex(OP _operation) {\n        require(\n            ((_operation == OP.Account && !accountLock) ||\n                (_operation == OP.Sell && !sellLock)) ||\n                (_operation == OP.Buy && !buyLock) ||\n                (_operation == OP.Global && !(sellLock && buyLock)),\n            \"Cannot acquire lock. Operation failure.\"\n        );\n        _;\n    }\n\n    function create_account() public payable require_unique(msg.sender) {\n        Account storage acc = userAccounts[msg.sender];\n        acc.balance = 0;\n        acc.exists = true;\n\n        handle_deposit_funds(msg.sender, msg.value);\n    }\n\n    function create_token_account(\n        address _tokenAddress,\n        uint _amount\n    ) public payable require_unique(msg.sender) {\n        Account storage acc = userAccounts[msg.sender];\n        acc.balance = 0;\n        acc.exists = true;\n\n        handle_deposit_funds(msg.sender, msg.value);\n        handle_transfer_token(msg.sender, _tokenAddress, _amount, true);\n    }\n\n    function deposit_funds()\n        public\n        payable\n        during(Modes.DepositWithdrawl)\n        require_account(msg.sender)\n    {\n        handle_deposit_funds(msg.sender, msg.value);\n    }\n\n    function withdraw_funds(\n        address payable transferTo,\n        uint _amount\n    )\n        public\n        during(Modes.DepositWithdrawl)\n        require_account(msg.sender)\n        require_mutex(OP.Account)\n    {\n        acquire_lock(OP.Account);\n        // Check user account balance is greater than requested amount.\n        emit DebugInt(userAccounts[msg.sender].balance);\n        require(\n            userAccounts[msg.sender].balance >= _amount,\n            \"Insufficient balance. Action not allowed.\"\n        );\n\n        uint withdrawAmount = userAccounts[msg.sender].balance;\n        userAccounts[msg.sender].balance -= withdrawAmount;\n        (bool success, ) = transferTo.call{value: withdrawAmount}(\"\");\n\n        if (!success) {\n            userAccounts[msg.sender].balance += withdrawAmount;\n            revert(\"Could not transfer ETH. Egress failure.\");\n        }\n        release_lock(OP.Account);\n    }\n\n    function deposit_token(\n        address _tokenAddress,\n        uint _amount\n    ) public during(Modes.DepositWithdrawl) require_account(msg.sender) {\n        handle_transfer_token(msg.sender, _tokenAddress, _amount, true);\n    }\n\n    function withdraw_token(\n        address _tokenAddress,\n        uint _amount\n    )\n        public\n        during(Modes.DepositWithdrawl)\n        require_account(msg.sender)\n        require_token_ownership(msg.sender, _tokenAddress)\n        require_mutex(OP.Account)\n    {\n        acquire_lock(OP.Account);\n        // Check user owns enough of the specified token.\n        require(\n            userAccounts[msg.sender].tokens[_tokenAddress] >= _amount,\n            \"User does not own enough of the specified token.\"\n        );\n\n        handle_transfer_token(msg.sender, _tokenAddress, _amount, false);\n        release_lock(OP.Account);\n    }\n\n    function sell(\n        address _tokenAddress,\n        uint _amount,\n        uint _price\n    )\n        public\n        during(Modes.Offer)\n        require_account(msg.sender)\n        require_token_ownership(msg.sender, _tokenAddress)\n        require_mutex(OP.Sell)\n    {\n        // Check user owns enough of the specified token.\n        require(\n            userAccounts[msg.sender].tokens[_tokenAddress] >= _amount,\n            \"User does not own enough of the specified token.\"\n        );\n\n        acquire_lock(OP.Sell);\n        uint thisOrderId = seek_order_id(OP.Sell);\n        sellSideIndex[thisOrderId] = _tokenAddress;\n\n        // Navigate the Sell Exchange and place sell order in list order\n        SellOrder memory currSell = sellSideExchange[_tokenAddress][\n            sellOrderId\n        ];\n\n        while (currSell.id != NONE) {\n            if (currSell.price <= _price) {\n                break;\n            }\n            currSell = sellSideExchange[_tokenAddress][currSell.previous];\n        }\n\n        sellSideExchange[_tokenAddress][thisOrderId] = SellOrder(\n            thisOrderId,\n            msg.sender,\n            _price,\n            _tokenAddress,\n            _amount,\n            true,\n            currSell.id,\n            sellSideExchange[_tokenAddress][currSell.next].id\n        );\n\n        // update next node to point to curr\n        sellSideExchange[_tokenAddress][currSell.next].previous = thisOrderId;\n        // update prev node to point to curr\n        sellSideExchange[_tokenAddress][currSell.id].next = thisOrderId;\n        sellOrderId = thisOrderId;\n        release_lock(OP.Sell);\n\n        emit SellID(thisOrderId);\n    }\n\n    function withdraw_sell_order(\n        uint _id\n    )\n        public\n        during(Modes.Offer)\n        require_account(msg.sender)\n        require_order_ownership(OP.Sell, msg.sender, _id)\n    {\n        acquire_lock(OP.Sell);\n        handle_remove_order(OP.Sell, _id);\n        release_lock(OP.Sell);\n    }\n\n    function reduce_price(\n        uint _id,\n        uint _price\n    )\n        public\n        during(Modes.Offer)\n        require_account(msg.sender)\n        require_order_ownership(OP.Sell, msg.sender, _id)\n        require_mutex(OP.Sell)\n    {\n        // Check tendered price is a reduction.\n        require(\n            sellSideExchange[sellSideIndex[_id]][_id].price > _price,\n            \"New price greater than current sell price\"\n        );\n\n        acquire_lock(OP.Sell);\n        sellSideExchange[sellSideIndex[_id]][_id].price = _price;\n        release_lock(OP.Sell);\n    }\n\n    function buy(\n        bytes32 _bid\n    )\n        public\n        during(Modes.BidOpening)\n        require_account(msg.sender)\n        require_mutex(OP.Buy)\n    {\n        acquire_lock(OP.Buy);\n        BuyOrder memory currBuy = buySideExchange[buyOrderId];\n        uint thisOrderId = seek_order_id(OP.Buy);\n\n        buySideExchange[thisOrderId] = BuyOrder(\n            thisOrderId,\n            msg.sender,\n            _bid,\n            OrderStatus.Closed,\n            true,\n            NONE_ADDR,\n            0,\n            0,\n            currBuy.id,\n            buySideExchange[currBuy.next].id\n        );\n\n        // update next node to point to curr\n        buySideExchange[currBuy.next].previous = thisOrderId;\n        // update prev node to point to curr\n        buySideExchange[currBuy.id].next = thisOrderId;\n        buyOrderId = thisOrderId;\n        release_lock(OP.Buy);\n\n        emit BuyID(thisOrderId);\n    }\n\n    function withdraw_buy_order(\n        uint _id\n    )\n        public\n        during(Modes.BidOpening)\n        require_account(msg.sender)\n        require_mutex(OP.Buy)\n        require_order_ownership(OP.Buy, msg.sender, _id)\n    {\n        acquire_lock(OP.Buy);\n        handle_remove_order(OP.Buy, _id);\n        userAccounts[msg.sender].debtAccrued -=\n            buySideExchange[_id].amount *\n            buySideExchange[_id].price;\n        emit DebugInt(userAccounts[msg.sender].debtAccrued);\n        release_lock(OP.Buy);\n    }\n\n    function open_buy_order(\n        uint _id,\n        address _token,\n        uint _price,\n        uint _amount,\n        uint _nonce\n    )\n        public\n        during(Modes.BidOpening)\n        require_account(msg.sender)\n        require_mutex(OP.Buy)\n        require_order_ownership(OP.Buy, msg.sender, _id)\n    {\n        // Check purported bid matches blind bid.\n        bytes32 verifiedBid = keccak256(\n            abi.encodePacked(_token, _price, _amount, _nonce)\n        );\n\n        require(\n            verifiedBid == buySideExchange[_id].blindBid,\n            \"Buy order missmatch. Cannot open diverging bid.\"\n        );\n\n        // Check account has enough funds to meet open bid.\n        require(\n            _price * _amount <=\n                userAccounts[msg.sender].balance -\n                    userAccounts[msg.sender].debtAccrued,\n            \"User is unable to service this bid. Cannot open bid.\"\n        );\n\n        userAccounts[msg.sender].debtAccrued += _price * _amount;\n\n        acquire_lock(OP.Buy);\n\n        buySideExchange[_id].token = _token;\n        buySideExchange[_id].price = _price;\n        buySideExchange[_id].amount = _amount;\n        buySideExchange[_id].status = OrderStatus.Open;\n\n        release_lock(OP.Buy);\n    }\n\n    function init_match_phase()\n        public\n        during(Modes.Matching)\n        require_account(msg.sender)\n        require_mutex(OP.Global)\n    {\n        acquire_lock(OP.Global);\n        match_buy_sell_exchange();\n        release_lock(OP.Global);\n    }\n\n    /// Determine the amount of time passed since the Auction genesis ...\n    // ... in minutes.\n    function poll_mode() internal {\n        uint timeDiff = block.timestamp - creationTime / 60;\n        uint modeDurationDiff = timeDiff % DURATION;\n        uint modePivot = modeDurationDiff % N_MODES;\n\n        // Check if the current mode is outdated.\n        if (uint(mode) != modePivot) {\n            assert(modePivot >= 0 && modePivot < 4);\n            // The current mode is outdated, so update the mode.\n            if (modePivot == 0) {\n                mode = Modes.DepositWithdrawl;\n            } else if (modePivot == 1) {\n                mode = Modes.Offer;\n            } else if (modePivot == 2) {\n                mode = Modes.BidOpening;\n            } else if (modePivot == 3) {\n                mode = Modes.Matching;\n            }\n        }\n    }\n\n    /// Handles deposit of funds into the Auction House.\n    function handle_deposit_funds(address _address, uint _amount) internal {\n        userAccounts[_address].balance += _amount;\n    }\n\n    /// Transfer an ERC20 tojen from one address to another.\n    /// This method handles both assuming and relieving ownership of a token.\n    /// @param _publicParty the address of the foreign party\n    /// @param _tokenAddress the address of the token type\n    /// @param _amount the number of ERC20 tokens\n    /// @param ingress whether ownership is being assumed\n    function handle_transfer_token(\n        address _publicParty,\n        address _tokenAddress,\n        uint _amount,\n        bool ingress\n    ) internal {\n        bool success = false;\n        if (ingress) {\n            // transfer token into exchange\n            success = IERC20(_tokenAddress).transferFrom(\n                _publicParty,\n                address(this),\n                _amount\n            );\n\n            if (!success) {\n                revert(\"Could not transfer token in.\");\n            } else {\n                userAccounts[_publicParty].tokens[_tokenAddress] += _amount;\n            }\n        } else {\n            // transfer token out of exchange\n            success = IERC20(_tokenAddress).approve(_publicParty, _amount);\n            success =\n                IERC20(_tokenAddress).transfer(_publicParty, _amount) &&\n                success;\n\n            if (!success) {\n                revert(\"Could not transfer token out.\");\n            } else {\n                userAccounts[_publicParty].tokens[_tokenAddress] -= _amount;\n            }\n        }\n    }\n\n    /// Remove an order from the structure of type OP.\n    /// @param _operation the type of order operation\n    /// @param _id the id of the order\n    /// @dev the method deletes an order from the doubly linked list ...\n    /// preserving the order of orders both berfore and after\n    function handle_remove_order(OP _operation, uint _id) internal {\n        if (_operation == OP.Sell) {\n            uint previousOrderId = sellSideExchange[sellSideIndex[_id]][_id]\n                .previous;\n            uint nextOrderId = sellSideExchange[sellSideIndex[_id]][_id].next;\n\n            sellSideExchange[sellSideIndex[previousOrderId]][previousOrderId]\n                .next = nextOrderId;\n\n            if (nextOrderId > 0) {\n                sellSideExchange[sellSideIndex[nextOrderId]][nextOrderId]\n                    .previous = previousOrderId;\n            }\n\n            delete sellSideExchange[sellSideIndex[_id]][_id];\n        } else {\n            uint previousOrderId = buySideExchange[_id].previous;\n            uint nextOrderId = buySideExchange[_id].next;\n\n            buySideExchange[previousOrderId].next = nextOrderId;\n\n            if (nextOrderId > 0) {\n                buySideExchange[nextOrderId].previous = previousOrderId;\n            }\n\n            delete buySideExchange[_id];\n        }\n    }\n\n    /// Release a global lock.\n    /// @param _operation the type of operation being locked\n    /// @dev once a lock is acquired, it is safe to operate on the structure ...\n    /// ... of type OP\n    function acquire_lock(OP _operation) internal {\n        if (_operation == OP.Sell) {\n            sellLock = true;\n        } else if (_operation == OP.Buy) {\n            buyLock = true;\n        } else if (_operation == OP.Account) {\n            accountLock = true;\n        } else {\n            accountLock = true;\n            sellLock = true;\n            buyLock = true;\n        }\n    }\n\n    /// Release a global lock.\n    /// @param _operation the type of operation being locked\n    /// @dev once a lock is released, the OP structure must not be modified\n    function release_lock(OP _operation) internal {\n        if (_operation == OP.Sell) {\n            sellLock = false;\n        } else if (_operation == OP.Buy) {\n            buyLock = false;\n        } else if (_operation == OP.Account) {\n            accountLock = false;\n        } else {\n            buyLock = false;\n            sellLock = false;\n        }\n    }\n\n    /// Seek the closest (strictly older than if previously initialised) index ...\n    /// ... to be used as an id within an Exchange\n    /// @param _operation the type of operation for the id\n    /// @dev the runtime of this method depends on whether the exchange data structures\n    /// are fragmented, which will theoretically be determined as a product of both time and ...\n    /// the volume of transactions through this Auction House.\n    /// @return an index\n    function seek_order_id(OP _operation) internal view returns (uint) {\n        bool buyOp = _operation == OP.Buy;\n        uint orderId = buyOp ? buyOrderId : sellOrderId;\n        bool found = false;\n        bool cycled = false;\n\n        while (!found) {\n            orderId += 1;\n\n            // Check whether an overflow is about to occur.\n            if (type(uint).max == orderId) {\n                if (cycled) {\n                    // already cycled before -- no key available\n                    revert(\"Maximum order limit reached.\");\n                }\n                cycled = true;\n            }\n\n            // Check whether the current orderId is occupied.\n            if (buyOp) {\n                found = !buySideExchange[orderId].exists ? true : found;\n            } else {\n                found = !sellSideExchange[sellSideIndex[orderId]][orderId]\n                    .exists\n                    ? true\n                    : found;\n            }\n        }\n\n        return orderId;\n    }\n\n    /// Match buy orders on the Buy Exchange to sell orders on the Sell Exchange ...\n    /// by traversing buySideExchange from head (oldest transaction) to tail (newest transaction)\n    function match_buy_sell_exchange() internal {\n        BuyOrder memory currBuy = buySideExchange[GENESIS];\n        while (true) {\n            // check if current order is not blind\n            if (currBuy.exists && currBuy.status == OrderStatus.Open) {\n                // try fulfulling the current order\n                // by matching lowest price <= current bid\n                SellOrder memory currSell = sellSideExchange[currBuy.token][\n                    GENESIS\n                ];\n\n                while (true) {\n                    if (currSell.exists && currSell.price <= currBuy.price) {\n                        // fulfil orders\n                        if (currSell.amount == currBuy.amount) {\n                            uint totalCost = currSell.price * currSell.amount;\n                            execute_match(\n                                currSell,\n                                currBuy,\n                                currSell.amount,\n                                totalCost,\n                                NONE\n                            );\n                            handle_remove_order(OP.Sell, currSell.id);\n                            handle_remove_order(OP.Buy, currBuy.id);\n                            // current buy order fulfiled; continue to next order\n                            break;\n                        }\n                        if (currSell.amount > currBuy.amount) {\n                            // fulfil sell order in part\n                            uint totalCost = currSell.price * currBuy.amount;\n                            execute_match(\n                                currSell,\n                                currBuy,\n                                currBuy.amount,\n                                totalCost,\n                                userAccounts[currSell.owner].tokens[\n                                    currSell.token\n                                ] - currBuy.amount\n                            );\n                            sellSideExchange[currBuy.token][currSell.id]\n                                .amount -= currBuy.amount;\n                            handle_remove_order(OP.Buy, currBuy.id);\n                            break;\n                        }\n                        if (currBuy.amount > currSell.amount) {\n                            // fulfil buy order in part\n                            uint totalCost = currSell.price * currSell.amount;\n                            execute_match(\n                                currSell,\n                                currBuy,\n                                currSell.amount,\n                                totalCost,\n                                NONE\n                            );\n                            buySideExchange[currBuy.id].amount -= currSell\n                                .amount;\n                            // buy order remains outstanding; continue\n                        }\n                        // reached the end of a sell order chain for the current token\n                        if (currSell.next == NONE) {\n                            break;\n                        }\n                        currSell = sellSideExchange[currBuy.token][\n                            currSell.next\n                        ];\n                        handle_remove_order(OP.Sell, currSell.id);\n                    } else {\n                        // reached the end of a sell order chain for the current token\n                        if (currSell.next == NONE) {\n                            break;\n                        }\n                        currSell = sellSideExchange[currBuy.token][\n                            currSell.next\n                        ];\n                    }\n                }\n            }\n            // reached the end of the buy order chain\n            if (currBuy.next == NONE) {\n                break;\n            }\n            currBuy = buySideExchange[currBuy.next];\n        }\n    }\n\n    // Execute match by brokering account data\n    function execute_match(\n        SellOrder memory _currSell,\n        BuyOrder memory _currBuy,\n        uint _amount,\n        uint _totalCost,\n        uint _remaining\n    ) internal {\n        require(\n            userAccounts[_currBuy.owner].balance >= _totalCost,\n            \"User does not have enough funds to execute transaction.\"\n        );\n\n        // decrease buyer debt accrued\n        userAccounts[_currBuy.owner].debtAccrued -= _totalCost;\n        // decrease buyer balance\n        userAccounts[_currBuy.owner].balance -= _totalCost;\n        // increase buyer token ownership\n        userAccounts[_currBuy.owner].tokens[_currSell.token] = _amount;\n        // update seller balance\n        userAccounts[_currSell.owner].balance += _totalCost;\n        // update seller token ownership\n        userAccounts[_currSell.owner].tokens[_currSell.token] = _remaining;\n        emit DebugInt(userAccounts[_currSell.owner].balance);\n        emit DebugSender(_currSell.owner);\n    }\n}\n",
  "sourcePath": "/Users/jarrodli/personal/SolidityDutchAuction/contracts/DutchAuctionHouse.sol",
  "compiler": {
    "name": "solc",
    "version": "0.8.19+commit.7dd6d404.Emscripten.clang"
  },
  "schemaVersion": "3.4.13",
  "updatedAt": "2023-04-05T05:39:40.514Z",
  "devdoc": {
    "kind": "dev",
    "methods": {},
    "title": "DutchAuctionHouse",
    "version": 1
  },
  "userdoc": {
    "kind": "user",
    "methods": {},
    "version": 1
  }
}