{
  "contractName": "DutchAuctionHouse",
  "abi": [
    {
      "inputs": [],
      "stateMutability": "nonpayable",
      "type": "constructor"
    },
    {
      "anonymous": false,
      "inputs": [
        {
          "indexed": false,
          "internalType": "address",
          "name": "a",
          "type": "address"
        }
      ],
      "name": "AddrDebug",
      "type": "event"
    },
    {
      "anonymous": false,
      "inputs": [
        {
          "indexed": false,
          "internalType": "uint256",
          "name": "orderId",
          "type": "uint256"
        }
      ],
      "name": "BuyID",
      "type": "event"
    },
    {
      "anonymous": false,
      "inputs": [
        {
          "indexed": false,
          "internalType": "bytes32",
          "name": "b",
          "type": "bytes32"
        }
      ],
      "name": "ByteDebug",
      "type": "event"
    },
    {
      "anonymous": false,
      "inputs": [
        {
          "indexed": false,
          "internalType": "uint256",
          "name": "orderId",
          "type": "uint256"
        }
      ],
      "name": "SellID",
      "type": "event"
    },
    {
      "anonymous": false,
      "inputs": [
        {
          "components": [
            {
              "internalType": "uint8",
              "name": "v",
              "type": "uint8"
            },
            {
              "internalType": "bytes32",
              "name": "r",
              "type": "bytes32"
            },
            {
              "internalType": "bytes32",
              "name": "s",
              "type": "bytes32"
            }
          ],
          "indexed": false,
          "internalType": "struct DutchAuctionHouse.Signature",
          "name": "s",
          "type": "tuple"
        }
      ],
      "name": "SigDebug",
      "type": "event"
    },
    {
      "inputs": [],
      "name": "create_account",
      "outputs": [],
      "stateMutability": "payable",
      "type": "function",
      "payable": true
    },
    {
      "inputs": [
        {
          "internalType": "bytes32",
          "name": "_key",
          "type": "bytes32"
        }
      ],
      "name": "create_pk_account",
      "outputs": [],
      "stateMutability": "payable",
      "type": "function",
      "payable": true
    },
    {
      "inputs": [
        {
          "internalType": "address",
          "name": "_tokenAddress",
          "type": "address"
        },
        {
          "internalType": "uint256",
          "name": "_amount",
          "type": "uint256"
        }
      ],
      "name": "create_token_account",
      "outputs": [],
      "stateMutability": "payable",
      "type": "function",
      "payable": true
    },
    {
      "inputs": [],
      "name": "deposit_funds",
      "outputs": [],
      "stateMutability": "payable",
      "type": "function",
      "payable": true
    },
    {
      "inputs": [
        {
          "internalType": "address payable",
          "name": "transferTo",
          "type": "address"
        },
        {
          "internalType": "uint256",
          "name": "_amount",
          "type": "uint256"
        }
      ],
      "name": "withdraw_funds",
      "outputs": [],
      "stateMutability": "nonpayable",
      "type": "function"
    },
    {
      "inputs": [
        {
          "internalType": "address",
          "name": "_tokenAddress",
          "type": "address"
        },
        {
          "internalType": "uint256",
          "name": "_amount",
          "type": "uint256"
        }
      ],
      "name": "deposit_token",
      "outputs": [],
      "stateMutability": "nonpayable",
      "type": "function"
    },
    {
      "inputs": [
        {
          "internalType": "address",
          "name": "_tokenAddress",
          "type": "address"
        },
        {
          "internalType": "uint256",
          "name": "_amount",
          "type": "uint256"
        }
      ],
      "name": "withdraw_token",
      "outputs": [],
      "stateMutability": "nonpayable",
      "type": "function"
    },
    {
      "inputs": [
        {
          "internalType": "address",
          "name": "_tokenAddress",
          "type": "address"
        },
        {
          "internalType": "uint256",
          "name": "_amount",
          "type": "uint256"
        },
        {
          "internalType": "uint256",
          "name": "_price",
          "type": "uint256"
        }
      ],
      "name": "sell",
      "outputs": [],
      "stateMutability": "nonpayable",
      "type": "function"
    },
    {
      "inputs": [
        {
          "internalType": "uint256",
          "name": "_id",
          "type": "uint256"
        }
      ],
      "name": "withdraw_sell_order",
      "outputs": [],
      "stateMutability": "nonpayable",
      "type": "function"
    },
    {
      "inputs": [
        {
          "internalType": "uint256",
          "name": "_id",
          "type": "uint256"
        },
        {
          "internalType": "uint256",
          "name": "_price",
          "type": "uint256"
        }
      ],
      "name": "reduce_price",
      "outputs": [],
      "stateMutability": "nonpayable",
      "type": "function"
    },
    {
      "inputs": [
        {
          "internalType": "bytes32",
          "name": "_bid",
          "type": "bytes32"
        },
        {
          "internalType": "bool",
          "name": "_isSigned",
          "type": "bool"
        },
        {
          "internalType": "uint8",
          "name": "_v",
          "type": "uint8"
        },
        {
          "internalType": "bytes32",
          "name": "_r",
          "type": "bytes32"
        },
        {
          "internalType": "bytes32",
          "name": "_s",
          "type": "bytes32"
        }
      ],
      "name": "buy",
      "outputs": [],
      "stateMutability": "nonpayable",
      "type": "function"
    },
    {
      "inputs": [
        {
          "internalType": "uint256",
          "name": "_id",
          "type": "uint256"
        }
      ],
      "name": "withdraw_buy_order",
      "outputs": [],
      "stateMutability": "nonpayable",
      "type": "function"
    },
    {
      "inputs": [
        {
          "internalType": "uint256",
          "name": "_id",
          "type": "uint256"
        },
        {
          "internalType": "address",
          "name": "_token",
          "type": "address"
        },
        {
          "internalType": "uint256",
          "name": "_price",
          "type": "uint256"
        },
        {
          "internalType": "uint256",
          "name": "_amount",
          "type": "uint256"
        },
        {
          "internalType": "uint256",
          "name": "_nonce",
          "type": "uint256"
        }
      ],
      "name": "open_buy_order",
      "outputs": [],
      "stateMutability": "nonpayable",
      "type": "function"
    },
    {
      "inputs": [],
      "name": "init_match_phase",
      "outputs": [],
      "stateMutability": "nonpayable",
      "type": "function"
    }
  ],
  "bytecode": "0x60a06040526000805460ff1916815560016005556006556007805462ffffff1916905534801561002e57600080fd5b504260805260805161322961004e6000396000611c4101526132296000f3fe6080604052600436106100ad5760003560e01c80631031bfd9146100b257806313ee6a73146100d457806325f62784146100dc57806339da38b1146100fc57806346475c301461011c57806348a1a8011461013c5780634c3d55881461015c578063509f86331461016f5780636a272462146101775780636b20783c14610197578063907b9405146101b7578063b74b058d146101cc578063e4a1d868146101df578063ea932954146101ff575b600080fd5b3480156100be57600080fd5b506100d26100cd366004612cb5565b61021f565b005b6100d2610666565b3480156100e857600080fd5b506100d26100f7366004612cfd565b6106b0565b34801561010857600080fd5b506100d2610117366004612d37565b610950565b34801561012857600080fd5b506100d2610137366004612d8f565b610d65565b34801561014857600080fd5b506100d2610157366004612d8f565b610e21565b6100d261016a366004612d8f565b6110b8565b6100d2611125565b34801561018357600080fd5b506100d2610192366004612da8565b611186565b3480156101a357600080fd5b506100d26101b2366004612ddd565b61171b565b3480156101c357600080fd5b506100d261193d565b6100d26101da366004612cfd565b6119cd565b3480156101eb57600080fd5b506100d26101fa366004612cfd565b611a41565b34801561020b57600080fd5b506100d261021a366004612cfd565b611a7d565b6002610229611c38565b3360008181526001602052604090206003015460ff166102645760405162461bcd60e51b815260040161025b90612dff565b60405180910390fd5b600060075460ff1615806102aa5750600481600481111561028757610287612e52565b1480156102aa5750600754610100900460ff1680156102a8575060075460ff165b155b6102c65760405162461bcd60e51b815260040161025b90612e68565b600033896102d4565b610455565b600081815260036020526040902060060154610100900460ff1661032e576000818152600360205260409020600101546001600160a01b038381169116146102cf5760405162461bcd60e51b815260040161025b90612f16565b604080518082018252601c81527b0ca2ba3432b932bab69029b4b3b732b21026b2b9b9b0b3b29d05199960211b602080830191909152600084815260038252838120600201549351929390926103879285929101612f74565b60408051601f198184030181528282528051602091820120600087815260038084528482206060870186529081015460ff168087526004820154878601819052600590920154878701819052865193845292909401948590529195506001936103f593879390929091612fa6565b6020604051602081039080840390855afa158015610417573d6000803e3d6000fd5b505050602060405103516001600160a01b0316856001600160a01b0316146104515760405162461bcd60e51b815260040161025b90612fc4565b5050505b60008b8152600360208181526040805160608f901b6001600160601b03191681840152603481018e9052605481018d905260748082018d905282518083039091018152609490910182528051908301208f8552929091529091206002015481146105195760405162461bcd60e51b815260206004820152602f60248201527f427579206f72646572206d6973736d617463682e2043616e6e6f74206f70656e60448201526e103234bb32b933b4b733903134b21760891b606482015260840161025b565b33600090815260016020819052604090912090810154905461053b9190613038565b6105458a8c613051565b11156105b05760405162461bcd60e51b815260206004820152603460248201527f5573657220697320756e61626c6520746f20736572766963652074686973206260448201527334b2171021b0b73737ba1037b832b7103134b21760611b606482015260840161025b565b6105ba898b613051565b33600090815260016020819052604082200180549091906105dc908490613068565b909155506105ec90506000611d30565b60008c81526003602052604090206006810180546001600160a01b038e166301000000026301000000600160b81b0319821681178355600784018e905560089093018c905560019260ff191662ffff01600160b81b031990911617828002179055506106586000611de3565b505050505050505050505050565b6000610670611c38565b3360008181526001602052604090206003015460ff166106a25760405162461bcd60e51b815260040161025b90612dff565b6106ac3334611e84565b5050565b60006106ba611c38565b3360008181526001602052604090206003015460ff166106ec5760405162461bcd60e51b815260040161025b90612dff565b600360075462010000900460ff16158061072a5750600281600481111561071557610715612e52565b14801561072a5750600754610100900460ff16155b806107705750600081600481111561074457610744612e52565b14806107615750600181600481111561075f5761075f612e52565b145b8015610770575060075460ff16155b806107ad5750600481600481111561078a5761078a612e52565b1480156107ad5750600754610100900460ff1680156107ab575060075460ff165b155b6107c95760405162461bcd60e51b815260040161025b90612e68565b6107d36003611d30565b336000908152600160205260409020548411156108445760405162461bcd60e51b815260206004820152602960248201527f496e73756666696369656e742062616c616e63652e20416374696f6e206e6f746044820152681030b63637bbb2b21760b91b606482015260840161025b565b3360009081526001602052604081208054918291906108638380613038565b90915550506040516000906001600160a01b0388169083908381818185875af1925050503d80600081146108b3576040519150601f19603f3d011682016040523d82523d6000602084013e6108b8565b606091505b505090508061093d5733600090815260016020526040812080548492906108e0908490613068565b909155505060405162461bcd60e51b815260206004820152602760248201527f436f756c64206e6f74207472616e73666572204554482e20456772657373206660448201526630b4b63ab9329760c91b606482015260840161025b565b6109476003611de3565b50505050505050565b600261095a611c38565b3360008181526001602052604090206003015460ff1661098c5760405162461bcd60e51b815260040161025b90612dff565b600060075460ff1615806109d2575060048160048111156109af576109af612e52565b1480156109d25750600754610100900460ff1680156109d0575060075460ff165b155b6109ee5760405162461bcd60e51b815260040161025b90612e68565b6109f86000611d30565b6005805460009081526003602081815260408084208151610180810183528154815260018201546001600160a01b031681850152600280830154828501528351606081810186529684015460ff908116825260048501549682019690965297830154938801939093529384019590955260068501549394929360808501921690811115610a8757610a87612e52565b6002811115610a9857610a98612e52565b8152600682015460ff610100820481161515602084015262010000820416151560408301526001600160a01b03630100000090910416606082015260078201546080820152600882015460a0820152600982015460c0820152600a9091015460e09091015290506000610b0a81611eb5565b9050604051806101800160405280828152602001336001600160a01b031681526020018b81526020018a610b5a576040805160608101825260008082526020820181905291810191909152610b79565b60405180606001604052808b60ff1681526020018a8152602001898152505b8152602001600081528a15156020808301919091526001604080840182905260006060808601829052608080870183905260a08701839052895160c08801526101608a0151835260038087528484205460e09098019790975288835286865291839020875181558786015181860180546001600160a01b03929092166001600160a01b031990921691909117905587840151600280830191909155918801518051978201805460ff90991660ff19998a16179055958601516004820155949092015160058501558501516006840180549495919490939116918490811115610c6357610c63612e52565b021790555060a082015160068201805460c085015160e086015162ffff0019909216610100941515850262ff00001916176201000091151591909102176301000000600160b81b03191663010000006001600160a01b03909216919091021790558201516007820155610120820151600882015561014082015160098083019190915561016092830151600a928301559184015160009081526003602052604080822090930184905584518152918220018290556005829055610d2590611de3565b6040518181527f9fe7e26c8f21266842204c92fb01af07ee3c12d7ec65c487c3b7d24e29ea66ce906020015b60405180910390a150505050505050505050565b6001610d6f611c38565b3360008181526001602052604090206003015460ff16610da15760405162461bcd60e51b815260040161025b90612dff565b600233846000818152600460209081526040808320546001600160a01b0390811684526002835281842085855290925290912060010154811690831614610dfa5760405162461bcd60e51b815260040161025b90612eaf565b610e046002611d30565b610e0f600287611fea565b610e196002611de3565b505050505050565b6002610e2b611c38565b3360008181526001602052604090206003015460ff16610e5d5760405162461bcd60e51b815260040161025b90612dff565b600160075460ff161580610ea357506004816004811115610e8057610e80612e52565b148015610ea35750600754610100900460ff168015610ea1575060075460ff165b155b610ebf5760405162461bcd60e51b815260040161025b90612e68565b60013385610ecd565b61104e565b600081815260036020526040902060060154610100900460ff16610f27576000818152600360205260409020600101546001600160a01b03838116911614610ec85760405162461bcd60e51b815260040161025b90612f16565b604080518082018252601c81527b0ca2ba3432b932bab69029b4b3b732b21026b2b9b9b0b3b29d05199960211b60208083019190915260008481526003825283812060020154935192939092610f809285929101612f74565b60408051601f198184030181528282528051602091820120600087815260038084528482206060870186529081015460ff16808752600482015487860181905260059092015487870181905286519384529290940194859052919550600193610fee93879390929091612fa6565b6020604051602081039080840390855afa158015611010573d6000803e3d6000fd5b505050602060405103516001600160a01b0316856001600160a01b03161461104a5760405162461bcd60e51b815260040161025b90612fc4565b5050505b600087815260036020526040902060078101546008909101546110719190613051565b3360009081526001602081905260408220018054909190611093908490613038565b909155506110a390506001611d30565b6110ae600188611fea565b6109476001611de3565b3360008181526001602052604090206003015460ff16156110eb5760405162461bcd60e51b815260040161025b9061307b565b336000818152600160208190526040822091825560038201805460ff1916909117905560048101849055906111209034611e84565b505050565b3360008181526001602052604090206003015460ff16156111585760405162461bcd60e51b815260040161025b9061307b565b336000818152600160208190526040822091825560038201805460ff19169091179055906106ac9034611e84565b6001611190611c38565b3360008181526001602052604090206003015460ff166111c25760405162461bcd60e51b815260040161025b90612dff565b3360008181526001602090815260408083206001600160a01b038a16845260020190915290205486906112075760405162461bcd60e51b815260040161025b906130c6565b6002600754610100900460ff16158061125b5750600081600481111561122f5761122f612e52565b148061124c5750600181600481111561124a5761124a612e52565b145b801561125b575060075460ff16155b806112985750600481600481111561127557611275612e52565b1480156112985750600754610100900460ff168015611296575060075460ff165b155b6112b45760405162461bcd60e51b815260040161025b90612e68565b3360009081526001602090815260408083206001600160a01b038c1684526002019091529020548711156112fa5760405162461bcd60e51b815260040161025b90613112565b6113046002611d30565b60006113106002611eb5565b9050886004600083815260200190815260200160002060006101000a8154816001600160a01b0302191690836001600160a01b031602179055506000600260008b6001600160a01b03166001600160a01b031681526020019081526020016000206000600654815260200190815260200160002060405180610100016040529081600082015481526020016001820160009054906101000a90046001600160a01b03166001600160a01b03166001600160a01b03168152602001600282015481526020016003820160009054906101000a90046001600160a01b03166001600160a01b03166001600160a01b03168152602001600482015481526020016005820160009054906101000a900460ff161515151581526020016006820154815260200160078201548152505090505b8051156114e15787816040015111156114e1576001600160a01b03808b16600090815260026020818152604080842060c096870151855282529283902083516101008101855281548152600182015486169281019290925291820154928101929092526003810154909216606082015260048201546080820152600582015460ff16151560a08201526006820154928101929092526007015460e082015261143e565b604051806101000160405280838152602001336001600160a01b031681526020018981526020018b6001600160a01b031681526020018a815260200160011515815260200182600001518152602001600260008d6001600160a01b03166001600160a01b0316815260200190815260200160002060008460e00151815260200190815260200160002060000154815250600260008c6001600160a01b03166001600160a01b0316815260200190815260200160002060008481526020019081526020016000206000820151816000015560208201518160010160006101000a8154816001600160a01b0302191690836001600160a01b031602179055506040820151816002015560608201518160030160006101000a8154816001600160a01b0302191690836001600160a01b031602179055506080820151816004015560a08201518160050160006101000a81548160ff02191690831515021790555060c0820151816006015560e0820151816007015590505081600260008c6001600160a01b03166001600160a01b0316815260200190815260200160002060008360e0015181526020019081526020016000206006018190555081600260008c6001600160a01b03166001600160a01b0316815260200190815260200160002060008360000151815260200190815260200160002060070181905550816006819055506116eb6002611de3565b6040518281527fac02bddb11496040daa8922936c8225afb05076045aabe9223bdd4e817a9b99390602001610d51565b6001611725611c38565b3360008181526001602052604090206003015460ff166117575760405162461bcd60e51b815260040161025b90612dff565b600233856000818152600460209081526040808320546001600160a01b03908116845260028352818420858552909252909120600101548116908316146117b05760405162461bcd60e51b815260040161025b90612eaf565b6002600754610100900460ff161580611804575060008160048111156117d8576117d8612e52565b14806117f5575060018160048111156117f3576117f3612e52565b145b8015611804575060075460ff16155b806118415750600481600481111561181e5761181e612e52565b1480156118415750600754610100900460ff16801561183f575060075460ff165b155b61185d5760405162461bcd60e51b815260040161025b90612e68565b6000888152600460209081526040808320546001600160a01b0316835260028083528184208c8552909252909120015487106118ed5760405162461bcd60e51b815260206004820152602960248201527f4e65772070726963652067726561746572207468616e2063757272656e742073604482015268656c6c20707269636560b81b606482015260840161025b565b6118f76002611d30565b6000888152600460209081526040808320546001600160a01b0316835260028083528184208c8552909252909120810188905561193390611de3565b5050505050505050565b6003611947611c38565b3360008181526001602052604090206003015460ff166119795760405162461bcd60e51b815260040161025b90612dff565b6004600754610100900460ff168015611994575060075460ff165b156119b15760405162461bcd60e51b815260040161025b90612e68565b6119bb6004611d30565b6119c36121c6565b6111206004611de3565b3360008181526001602052604090206003015460ff1615611a005760405162461bcd60e51b815260040161025b9061307b565b336000818152600160208190526040822091825560038201805460ff1916909117905590611a2e9034611e84565b611a3b3385856001612871565b50505050565b6000611a4b611c38565b3360008181526001602052604090206003015460ff16611a2e5760405162461bcd60e51b815260040161025b90612dff565b6000611a87611c38565b3360008181526001602052604090206003015460ff16611ab95760405162461bcd60e51b815260040161025b90612dff565b3360008181526001602090815260408083206001600160a01b03891684526002019091529020548590611afe5760405162461bcd60e51b815260040161025b906130c6565b600360075462010000900460ff161580611b3c57506002816004811115611b2757611b27612e52565b148015611b3c5750600754610100900460ff16155b80611b8257506000816004811115611b5657611b56612e52565b1480611b7357506001816004811115611b7157611b71612e52565b145b8015611b82575060075460ff16155b80611bbf57506004816004811115611b9c57611b9c612e52565b148015611bbf5750600754610100900460ff168015611bbd575060075460ff165b155b611bdb5760405162461bcd60e51b815260040161025b90612e68565b611be56003611d30565b3360009081526001602090815260408083206001600160a01b038b168452600201909152902054861115611c2b5760405162461bcd60e51b815260040161025b90613112565b61093d3388886000612871565b6000611c65603c7f0000000000000000000000000000000000000000000000000000000000000000613178565b611c6f9042613038565b90506000611c7f61012c8361318c565b90506000611c8e60048361318c565b600054909150819060ff166003811115611caa57611caa612e52565b146111205760048110611cbf57611cbf6131a0565b80600003611cdf5760008054819060ff19166001825b0217905550505050565b80600103611cfa57600080546001919060ff19168280611cd5565b80600203611d1657600080546002919060ff1916600183611cd5565b806003036111205750506000805460ff1916600317905550565b6002816004811115611d4457611d44612e52565b03611d5b576007805461ff00191661010017905550565b6000816004811115611d6f57611d6f612e52565b1480611d8c57506001816004811115611d8a57611d8a612e52565b145b15611da1576007805460ff1916600117905550565b6003816004811115611db557611db5612e52565b03611dce576007805462ff000019166201000017905550565b6007805462ffffff1916620101011790555b50565b6002816004811115611df757611df7612e52565b03611e0a576007805461ff001916905550565b6000816004811115611e1e57611e1e612e52565b1480611e3b57506001816004811115611e3957611e39612e52565b145b15611e4d576007805460ff1916905550565b6003816004811115611e6157611e61612e52565b03611e75576007805462ff00001916905550565b6007805462ffffff1916905550565b6001600160a01b03821660009081526001602052604081208054839290611eac908490613068565b90915550505050565b60008080836004811115611ecb57611ecb612e52565b1480611ee857506001836004811115611ee657611ee6612e52565b145b9050600081611ef957600654611efd565b6005545b90506000805b81611fe057611f13600184613068565b92508219611f6c578015611f685760405162461bcd60e51b815260206004820152601c60248201527b26b0bc34b6bab69037b93232b9103634b6b4ba103932b0b1b432b21760211b604482015260640161025b565b5060015b8315611fa25760008381526003602052604090206006015462010000900460ff1615611f985781611f9b565b60015b9150611f03565b6000838152600460209081526040808320546001600160a01b031683526002825280832086845290915290206005015460ff1615611f985781611f9b565b5090949350505050565b6002826004811115611ffe57611ffe612e52565b03612111576000818152600460208181526040808420546001600160a01b0390811685526002808452828620878752845282862060068101546007918201548189529686528488205490931687529084528286208287529093529320018190558015612097576000818152600460209081526040808320546001600160a01b031683526002825280832084845290915290206006018290555b50506000818152600460208181526040808420546001600160a01b03168452600280835281852086865290925283208381556001810180546001600160a01b031990811690915591810184905560038101805490921690915590810182905560058101805460ff1916905560068101829055600701555050565b6000818152600360205260408082206009810154600a91820154818552929093200181905580156121515760008181526003602052604090206009018290555b5050600090815260036020819052604082208281556001810180546001600160a01b031916905560028101839055908101805460ff1916905560048101829055600581018290556006810180546001600160b81b0319169055600781018290556008810182905560098101829055600a015550565b60008080526003602090815260408051610180810182527f3617319a054d772f909f7c479a2cebe5066e836a939412e32403c99029b92eff805482527f3617319a054d772f909f7c479a2cebe5066e836a939412e32403c99029b92f00546001600160a01b0316828501527f3617319a054d772f909f7c479a2cebe5066e836a939412e32403c99029b92f0154828401528251606081810185527f3617319a054d772f909f7c479a2cebe5066e836a939412e32403c99029b92f025460ff90811683527f3617319a054d772f909f7c479a2cebe5066e836a939412e32403c99029b92f0354968301969096527f3617319a054d772f909f7c479a2cebe5066e836a939412e32403c99029b92f045494820194909452928201929092527f3617319a054d772f909f7c479a2cebe5066e836a939412e32403c99029b92f05549092608084019116600281111561231d5761231d612e52565b600281111561232e5761232e612e52565b8152600682015460ff610100820481161515602084015262010000820416151560408301526001600160a01b03630100000090910416606082015260078201546080820152600882015460a0820152600982015460c0820152600a9091015460e09091015290505b8060c0015180156123bc57506001816080015160028111156123ba576123ba612e52565b145b156127555760e0808201516001600160a01b03908116600090815260026020818152604080842084805282529283902083516101008101855281548152600182015486169281019290925291820154928101929092526003810154909216606082015260048201546080820152600582015460ff16151560a0820152600682015460c0820152600790910154918101919091525b8060a00151801561246a5750816101000151816040015111155b156126b5578161012001518160800151036124cd576000816080015182604001516124959190613051565b90506124a982848460800151846000612b0b565b6124b860028360000151611fea565b6124c760018460000151611fea565b50612753565b816101200151816080015111156125a057600082610120015182604001516124f59190613051565b6101208401516020808501516001600160a01b03908116600090815260018352604080822060608901519093168252600290920190925290205491925061254c91849186918590612547908390613038565b612b0b565b61012083015160e08401516001600160a01b03166000908152600260209081526040808320865184529091528120600401805490919061258d908490613038565b909155505082516124c790600190611fea565b8060800151826101200151111561260a576000816080015182604001516125c79190613051565b90506125db82848460800151846000612b0b565b6080820151835160009081526003602052604081206008018054909190612603908490613038565b9091555050505b60e0810151156127535760e0808301516001600160a01b039081166000908152600260208181526040808420968601518452958152918590208551610100810187528154808252600183015486169482019490945281830154968101969096526003810154909316606086015260048301546080860152600583015460ff16151560a0860152600683015460c0860152600790920154928401929092526126b091611fea565b612450565b60e0810151156127535760e0808301516001600160a01b0390811660009081526002602081815260408084209686015184529581529185902085516101008101875281548152600182015485169381019390935290810154948201949094526003840154909116606082015260048301546080820152600583015460ff16151560a0820152600683015460c082015260079092015490820152612450565b505b61016081015115611de0576101608101516000908152600360208181526040928390208351610180810185528154815260018201546001600160a01b031681840152600280830154828701528551606081810188529584015460ff90811682526004850154958201959095526005840154968101969096529381019490945260068101549092608085019291909116908111156127f4576127f4612e52565b600281111561280557612805612e52565b8152600682015460ff610100820481161515602084015262010000820416151560408301526001600160a01b03630100000090910416606082015260078201546080820152600882015460a0820152600982015460c0820152600a9091015460e0909101529050612396565b60008115612986576040516323b872dd60e01b81526001600160a01b038681166004830152306024830152604482018590528516906323b872dd906064016020604051808303816000875af11580156128ce573d6000803e3d6000fd5b505050506040513d601f19601f820116820180604052508101906128f291906131b6565b9050806129405760405162461bcd60e51b815260206004820152601c60248201527b21b7bab632103737ba103a3930b739b332b9103a37b5b2b71034b71760211b604482015260640161025b565b6001600160a01b038086166000908152600160209081526040808320938816835260029093019052908120805485929061297b908490613068565b90915550612b049050565b60405163095ea7b360e01b81526001600160a01b0385169063095ea7b3906129b490889087906004016131da565b6020604051808303816000875af11580156129d3573d6000803e3d6000fd5b505050506040513d601f19601f820116820180604052508101906129f791906131b6565b60405163a9059cbb60e01b81529091506001600160a01b0385169063a9059cbb90612a2890889087906004016131da565b6020604051808303816000875af1158015612a47573d6000803e3d6000fd5b505050506040513d601f19601f82011682018060405250810190612a6b91906131b6565b8015612a745750805b905080612ac35760405162461bcd60e51b815260206004820152601d60248201527f436f756c64206e6f74207472616e7366657220746f6b656e206f75742e000000604482015260640161025b565b6001600160a01b0380861660009081526001602090815260408083209388168352600290930190529081208054859290612afe908490613038565b90915550505b5050505050565b6020808501516001600160a01b0316600090815260019091526040902054821115612b985760405162461bcd60e51b815260206004820152603760248201527f5573657220646f6573206e6f74206861766520656e6f7567682066756e6473206044820152763a379032bc32b1baba32903a3930b739b0b1ba34b7b71760491b606482015260840161025b565b816001600086602001516001600160a01b03166001600160a01b031681526020019081526020016000206001016000828254612bd49190613038565b90915550506020808501516001600160a01b031660009081526001909152604081208054849290612c06908490613038565b90915550506020808501516001600160a01b0390811660009081526001808452604080832060608b015185168452600201855280832088905589850151909316825290925281208054849290612c5d908490613068565b90915550506020808601516001600160a01b0390811660009081526001835260408082206060909901519092168152600290970190915290942093909355505050565b6001600160a01b0381168114611de057600080fd5b600080600080600060a08688031215612ccd57600080fd5b853594506020860135612cdf81612ca0565b94979496505050506040830135926060810135926080909101359150565b60008060408385031215612d1057600080fd5b8235612d1b81612ca0565b946020939093013593505050565b8015158114611de057600080fd5b600080600080600060a08688031215612d4f57600080fd5b853594506020860135612d6181612d29565b9350604086013560ff81168114612d7757600080fd5b94979396509394606081013594506080013592915050565b600060208284031215612da157600080fd5b5035919050565b600080600060608486031215612dbd57600080fd5b8335612dc881612ca0565b95602085013595506040909401359392505050565b60008060408385031215612df057600080fd5b50508035926020909101359150565b60208082526033908201527f4163636f756e742070617961626c6520646f6573206e6f742065786973742e2060408201527220b1ba34b7b7103737ba1030b63637bbb2b21760691b606082015260800190565b634e487b7160e01b600052602160045260246000fd5b60208082526027908201527f43616e6e6f742061637175697265206c6f636b2e204f7065726174696f6e206660408201526630b4b63ab9329760c91b606082015260800190565b60208082526041908201527f5573657220686173206e6f2073656c6c206f72646572207769746820636f727260408201527f6573706f6e64696e672069642e20416374696f6e206e6f7420616c6c6f7765646060820152601760f91b608082015260a00190565b602080825260409082018190527f5573657220686173206e6f20627579206f72646572207769746820636f727265908201527f73706f6e64696e672069642e20416374696f6e206e6f7420616c6c6f7765642e606082015260800190565b6000835160005b81811015612f955760208187018101518583015201612f7b565b509190910191825250602001919050565b93845260ff9290921660208401526040830152606082015260800190565b602080825260409082018190527f5369676e6174757265207265636f76657279206661696c7572652e2043616e6e908201527f6f74206f706572617465206f6e20616e6f74686572207573657273206269642e606082015260800190565b634e487b7160e01b600052601160045260246000fd5b8181038181111561304b5761304b613022565b92915050565b808202811582820484141761304b5761304b613022565b8082018082111561304b5761304b613022565b6020808252602b908201527f4163636f756e7420616c7265616479206578697374732e20416374696f6e206e60408201526a37ba1030b63637bbb2b21760a91b606082015260800190565b6020808252602c908201527f5573657220646f6573206e6f74206f776e20746f6b656e2e20416374696f6e2060408201526b3737ba1030b63637bbb2b21760a11b606082015260800190565b60208082526030908201527f5573657220646f6573206e6f74206f776e20656e6f756768206f66207468652060408201526f39b832b1b4b334b2b2103a37b5b2b71760811b606082015260800190565b634e487b7160e01b600052601260045260246000fd5b60008261318757613187613162565b500490565b60008261319b5761319b613162565b500690565b634e487b7160e01b600052600160045260246000fd5b6000602082840312156131c857600080fd5b81516131d381612d29565b9392505050565b6001600160a01b0392909216825260208201526040019056fea264697066735822122091e472a478cfe3ef5be216096f82088f4e609139f7f634d9cc993a3f08ee113764736f6c63430008130033",
  "immutableReferences": {
    "914": [
      {
        "length": 32,
        "start": 7233
      }
    ]
  },
  "source": "// SPDX-License-Identifier: MIT\npragma solidity >=0.4.22 <0.9.0;\n\nimport \"@openzeppelin/contracts/token/ERC20/presets/ERC20PresetFixedSupply.sol\";\n\n/// @title DutchAuctionHouse\ncontract DutchAuctionHouse {\n    event SellID(uint orderId);\n    event BuyID(uint orderId);\n    event ByteDebug(bytes32 b);\n    event SigDebug(Signature s);\n    event AddrDebug(address a);\n\n    enum Modes {\n        DepositWithdrawl,\n        Offer,\n        BidOpening,\n        Matching\n    }\n\n    enum OP {\n        PlaceBuy,\n        WithdrawBuy,\n        Sell,\n        Account,\n        Global\n    }\n\n    struct Account {\n        uint balance; // total ETH held\n        uint debtAccrued; // total amount of possible debt owing\n        mapping(address => uint) tokens; // owned tokens\n        bool exists; // flag for existence\n        bytes32 publicKey; // public key for validating ops\n    }\n\n    // Buy Orders exist on the buySideExchange.\n    struct SellOrder {\n        uint id;\n        address owner;\n        uint price;\n        address token;\n        uint amount;\n        bool exists;\n        // traversal variables\n        uint previous;\n        uint next;\n    }\n\n    enum OrderStatus {\n        Closed,\n        Open,\n        Genesis\n    }\n\n    struct Signature {\n        uint8 v;\n        bytes32 r;\n        bytes32 s;\n    }\n\n    // A Buy Order can be a blind bid or an open bid.\n    // Buy Orders exist on the buySideExchange.\n    struct BuyOrder {\n        uint id;\n        address owner;\n        bytes32 blindBid;\n        Signature signature;\n        OrderStatus status;\n        bool signed;\n        bool exists;\n        // open bid state variables\n        address token;\n        uint price;\n        uint amount;\n        // traversal variables\n        uint previous;\n        uint next;\n    }\n\n    // Mode consts\n    uint private constant DURATION = 5 minutes;\n    uint private constant N_MODES = 4;\n\n    // Util consts\n    address private constant NONE_ADDR = address(0x0);\n    bytes32 private constant NONE_BYTES = bytes32(0x0);\n    uint private constant NONE = 0;\n    uint private constant GENESIS = 0;\n\n    uint private immutable creationTime;\n    Modes private mode = Modes.DepositWithdrawl;\n\n    // User Accounts brokering ETH and tokens deposits\n    mapping(address => Account) userAccounts;\n    // Exchange tracking sell orders of a particular token type\n    mapping(address => mapping(uint => SellOrder)) sellSideExchange;\n    // Exchange tracking buy orders\n    mapping(uint => BuyOrder) buySideExchange;\n    // Index mapping ids to token types\n    mapping(uint => address) sellSideIndex;\n\n    // Dynamic order ids\n    uint private buyOrderId = 1;\n    uint private sellOrderId = 0;\n\n    // Exchange locks\n    bool private buyLock = false;\n    bool private sellLock = false;\n    bool private accountLock = false;\n\n    constructor() {\n        // initialise creation time\n        creationTime = block.timestamp;\n    }\n\n    modifier during(Modes _mode) {\n        poll_mode();\n        // require(mode == _mode, \"Action not allowed during this mode.\");\n        _;\n    }\n\n    modifier require_unique(address _account) {\n        require(\n            !userAccounts[_account].exists,\n            \"Account already exists. Action not allowed.\"\n        );\n        _;\n    }\n\n    modifier require_account(address _account) {\n        require(\n            userAccounts[_account].exists,\n            \"Account payable does not exist. Action not allowed.\"\n        );\n        _;\n    }\n\n    modifier require_token_ownership(address _account, address _tokenAddress) {\n        require(\n            userAccounts[_account].tokens[_tokenAddress] > 0,\n            \"User does not own token. Action not allowed.\"\n        );\n        _;\n    }\n\n    modifier require_order_ownership(\n        OP _operation,\n        address _account,\n        uint _id\n    ) {\n        if (_operation == OP.Sell) {\n            require(\n                sellSideExchange[sellSideIndex[_id]][_id].owner == _account,\n                \"User has no sell order with corresponding id. Action not allowed.\"\n            );\n        } else if (!buySideExchange[_id].signed) {\n            // only require buy order ownership if order is not signed\n            require(\n                buySideExchange[_id].owner == _account,\n                \"User has no buy order with corresponding id. Action not allowed.\"\n            );\n        } else {\n            // validate signature.\n            bytes memory prefix = \"\\x19Ethereum Signed Message:\\n32\";\n            bytes32 prefixedHash = keccak256(\n                abi.encodePacked(prefix, buySideExchange[_id].blindBid)\n            );\n            Signature memory s = buySideExchange[_id].signature;\n\n            require(\n                _account == ecrecover(prefixedHash, s.v, s.r, s.s),\n                \"Signature recovery failure. Cannot operate on another users bid.\"\n            );\n        }\n\n        _;\n    }\n\n    modifier require_mutex(OP _operation) {\n        require(\n            ((_operation == OP.Account && !accountLock) ||\n                (_operation == OP.Sell && !sellLock)) ||\n                ((_operation == OP.PlaceBuy || _operation == OP.WithdrawBuy) &&\n                    !buyLock) ||\n                (_operation == OP.Global && !(sellLock && buyLock)),\n            \"Cannot acquire lock. Operation failure.\"\n        );\n        _;\n    }\n\n    /// Creates an account.\n    function create_account() public payable require_unique(msg.sender) {\n        Account storage acc = userAccounts[msg.sender];\n        acc.balance = 0;\n        acc.exists = true;\n\n        handle_deposit_funds(msg.sender, msg.value);\n    }\n\n    /// Creates an account.\n    function create_pk_account(\n        bytes32 _key\n    ) public payable require_unique(msg.sender) {\n        Account storage acc = userAccounts[msg.sender];\n        acc.balance = 0;\n        acc.exists = true;\n        acc.publicKey = _key;\n\n        handle_deposit_funds(msg.sender, msg.value);\n    }\n\n    /// Creates an account, accepting a token.\n    /// @param _tokenAddress the address of the token to be transfered\n    /// @param _amount the amount of a particular token to transfer\n    function create_token_account(\n        address _tokenAddress,\n        uint _amount\n    ) public payable require_unique(msg.sender) {\n        Account storage acc = userAccounts[msg.sender];\n        acc.balance = 0;\n        acc.exists = true;\n\n        handle_deposit_funds(msg.sender, msg.value);\n        handle_transfer_token(msg.sender, _tokenAddress, _amount, true);\n    }\n\n    /// Increases the amount of ETH available to a user who has an account.\n    function deposit_funds()\n        public\n        payable\n        during(Modes.DepositWithdrawl)\n        require_account(msg.sender)\n    {\n        handle_deposit_funds(msg.sender, msg.value);\n    }\n\n    /// Returns funds to a user.\n    /// @param transferTo the address for transfering the ETH\n    /// @param _amount the amount of money to transfer out\n    function withdraw_funds(\n        address payable transferTo,\n        uint _amount\n    )\n        public\n        during(Modes.DepositWithdrawl)\n        require_account(msg.sender)\n        require_mutex(OP.Account)\n    {\n        acquire_lock(OP.Account);\n        // Check user account balance is greater than requested amount.\n        require(\n            userAccounts[msg.sender].balance >= _amount,\n            \"Insufficient balance. Action not allowed.\"\n        );\n\n        uint withdrawAmount = userAccounts[msg.sender].balance;\n        userAccounts[msg.sender].balance -= withdrawAmount;\n        (bool success, ) = transferTo.call{value: withdrawAmount}(\"\");\n\n        if (!success) {\n            userAccounts[msg.sender].balance += withdrawAmount;\n            revert(\"Could not transfer ETH. Egress failure.\");\n        }\n        release_lock(OP.Account);\n    }\n\n    /// Accepts a token for use in the Auction House.\n    /// @param _tokenAddress the address of the token to be transfered\n    /// @param _amount the amount of a particular token to transfer\n    function deposit_token(\n        address _tokenAddress,\n        uint _amount\n    ) public during(Modes.DepositWithdrawl) require_account(msg.sender) {\n        handle_transfer_token(msg.sender, _tokenAddress, _amount, true);\n    }\n\n    /// Returns a token to a user.\n    /// @param _tokenAddress the address of the token to be transferred\n    /// @param _amount the amount of a particular token to transfer\n    function withdraw_token(\n        address _tokenAddress,\n        uint _amount\n    )\n        public\n        during(Modes.DepositWithdrawl)\n        require_account(msg.sender)\n        require_token_ownership(msg.sender, _tokenAddress)\n        require_mutex(OP.Account)\n    {\n        acquire_lock(OP.Account);\n        // Check user owns enough of the specified token.\n        require(\n            userAccounts[msg.sender].tokens[_tokenAddress] >= _amount,\n            \"User does not own enough of the specified token.\"\n        );\n\n        handle_transfer_token(msg.sender, _tokenAddress, _amount, false);\n        release_lock(OP.Account);\n    }\n\n    /// Creates a sell order.\n    /// @param _tokenAddress the address of the token to be transfered\n    /// @param _amount the amount of a particular token to transfer\n    /// @param _price the sell price\n    function sell(\n        address _tokenAddress,\n        uint _amount,\n        uint _price\n    )\n        public\n        during(Modes.Offer)\n        require_account(msg.sender)\n        require_token_ownership(msg.sender, _tokenAddress)\n        require_mutex(OP.Sell)\n    {\n        // Check user owns enough of the specified token.\n        require(\n            userAccounts[msg.sender].tokens[_tokenAddress] >= _amount,\n            \"User does not own enough of the specified token.\"\n        );\n\n        acquire_lock(OP.Sell);\n        uint thisOrderId = seek_order_id(OP.Sell);\n        sellSideIndex[thisOrderId] = _tokenAddress;\n\n        // Navigate the Sell Exchange and place sell order in list order\n        SellOrder memory currSell = sellSideExchange[_tokenAddress][\n            sellOrderId\n        ];\n\n        while (currSell.id != NONE) {\n            if (currSell.price <= _price) {\n                break;\n            }\n            currSell = sellSideExchange[_tokenAddress][currSell.previous];\n        }\n\n        sellSideExchange[_tokenAddress][thisOrderId] = SellOrder(\n            thisOrderId,\n            msg.sender,\n            _price,\n            _tokenAddress,\n            _amount,\n            true,\n            currSell.id,\n            sellSideExchange[_tokenAddress][currSell.next].id\n        );\n\n        // update next node to point to curr\n        sellSideExchange[_tokenAddress][currSell.next].previous = thisOrderId;\n        // update prev node to point to curr\n        sellSideExchange[_tokenAddress][currSell.id].next = thisOrderId;\n        sellOrderId = thisOrderId;\n        release_lock(OP.Sell);\n\n        emit SellID(thisOrderId);\n    }\n\n    /// Removes an active sell order.\n    /// @param _id the id of the order\n    function withdraw_sell_order(\n        uint _id\n    )\n        public\n        during(Modes.Offer)\n        require_account(msg.sender)\n        require_order_ownership(OP.Sell, msg.sender, _id)\n    {\n        acquire_lock(OP.Sell);\n        handle_remove_order(OP.Sell, _id);\n        release_lock(OP.Sell);\n    }\n\n    /// Reduces the price of an active sell order.\n    /// @param _id the id of the existing sell order\n    /// @param _price the new sell price\n    function reduce_price(\n        uint _id,\n        uint _price\n    )\n        public\n        during(Modes.Offer)\n        require_account(msg.sender)\n        require_order_ownership(OP.Sell, msg.sender, _id)\n        require_mutex(OP.Sell)\n    {\n        // Check tendered price is a reduction.\n        require(\n            sellSideExchange[sellSideIndex[_id]][_id].price > _price,\n            \"New price greater than current sell price\"\n        );\n\n        acquire_lock(OP.Sell);\n        sellSideExchange[sellSideIndex[_id]][_id].price = _price;\n        release_lock(OP.Sell);\n    }\n\n    /// Creates a blind buy order.\n    /// @param _bid a blind keccak256 hashed bid\n    function buy(\n        bytes32 _bid,\n        bool _isSigned,\n        uint8 _v,\n        bytes32 _r,\n        bytes32 _s\n    )\n        public\n        during(Modes.BidOpening)\n        require_account(msg.sender)\n        require_mutex(OP.PlaceBuy)\n    {\n        acquire_lock(OP.PlaceBuy);\n        BuyOrder memory currBuy = buySideExchange[buyOrderId];\n        uint thisOrderId = seek_order_id(OP.PlaceBuy);\n\n        buySideExchange[thisOrderId] = BuyOrder(\n            thisOrderId,\n            msg.sender,\n            _bid,\n            _isSigned\n                ? Signature(_v, _r, _s)\n                : Signature(0, NONE_BYTES, NONE_BYTES),\n            OrderStatus.Closed,\n            _isSigned,\n            true,\n            NONE_ADDR,\n            NONE,\n            NONE,\n            currBuy.id,\n            buySideExchange[currBuy.next].id\n        );\n\n        // update next node to point to curr\n        buySideExchange[currBuy.next].previous = thisOrderId;\n        // update prev node to point to curr\n        buySideExchange[currBuy.id].next = thisOrderId;\n        buyOrderId = thisOrderId;\n        release_lock(OP.PlaceBuy);\n\n        emit BuyID(thisOrderId);\n    }\n\n    /// Removes an active buy order from the market.\n    /// @param _id the id of the buy order\n    function withdraw_buy_order(\n        uint _id\n    )\n        public\n        during(Modes.BidOpening)\n        require_account(msg.sender)\n        require_mutex(OP.WithdrawBuy)\n        require_order_ownership(OP.WithdrawBuy, msg.sender, _id)\n    {\n        userAccounts[msg.sender].debtAccrued -=\n            buySideExchange[_id].amount *\n            buySideExchange[_id].price;\n        acquire_lock(OP.WithdrawBuy);\n        handle_remove_order(OP.WithdrawBuy, _id);\n        release_lock(OP.WithdrawBuy);\n    }\n\n    function open_buy_order(\n        uint _id,\n        address _token,\n        uint _price,\n        uint _amount,\n        uint _nonce\n    )\n        public\n        during(Modes.BidOpening)\n        require_account(msg.sender)\n        require_mutex(OP.PlaceBuy)\n        require_order_ownership(OP.PlaceBuy, msg.sender, _id)\n    {\n        // check if the bid was signed.\n        if (buySideExchange[_id].signed) {}\n\n        // check purported bid matches blind bid.\n        bytes32 verifiedBid = keccak256(\n            abi.encodePacked(_token, _price, _amount, _nonce)\n        );\n\n        require(\n            verifiedBid == buySideExchange[_id].blindBid,\n            \"Buy order missmatch. Cannot open diverging bid.\"\n        );\n\n        // check account has enough funds to meet open bid.\n        require(\n            _price * _amount <=\n                userAccounts[msg.sender].balance -\n                    userAccounts[msg.sender].debtAccrued,\n            \"User is unable to service this bid. Cannot open bid.\"\n        );\n\n        userAccounts[msg.sender].debtAccrued += _price * _amount;\n\n        acquire_lock(OP.PlaceBuy);\n\n        buySideExchange[_id].token = _token;\n        buySideExchange[_id].price = _price;\n        buySideExchange[_id].amount = _amount;\n        buySideExchange[_id].status = OrderStatus.Open;\n\n        release_lock(OP.PlaceBuy);\n    }\n\n    /// Begins the matching phase between market participants.\n    function init_match_phase()\n        public\n        during(Modes.Matching)\n        require_account(msg.sender)\n        require_mutex(OP.Global)\n    {\n        acquire_lock(OP.Global);\n        match_buy_sell_exchange();\n        release_lock(OP.Global);\n    }\n\n    /// Determine the amount of time passed since the Auction genesis ...\n    // ... in minutes.\n    function poll_mode() internal {\n        uint timeDiff = block.timestamp - creationTime / 60;\n        uint modeDurationDiff = timeDiff % DURATION;\n        uint modePivot = modeDurationDiff % N_MODES;\n\n        // Check if the current mode is outdated.\n        if (uint(mode) != modePivot) {\n            assert(modePivot >= 0 && modePivot < 4);\n            // The current mode is outdated, so update the mode.\n            if (modePivot == 0) {\n                mode = Modes.DepositWithdrawl;\n            } else if (modePivot == 1) {\n                mode = Modes.Offer;\n            } else if (modePivot == 2) {\n                mode = Modes.BidOpening;\n            } else if (modePivot == 3) {\n                mode = Modes.Matching;\n            }\n        }\n    }\n\n    /// Handles deposit of funds into the Auction House.\n    function handle_deposit_funds(address _address, uint _amount) internal {\n        userAccounts[_address].balance += _amount;\n    }\n\n    /// Transfer an ERC20 tojen from one address to another.\n    /// This method handles both assuming and relieving ownership of a token.\n    /// @param _publicParty the address of the foreign party\n    /// @param _tokenAddress the address of the token type\n    /// @param _amount the number of ERC20 tokens\n    /// @param ingress whether ownership is being assumed\n    function handle_transfer_token(\n        address _publicParty,\n        address _tokenAddress,\n        uint _amount,\n        bool ingress\n    ) internal {\n        bool success = false;\n        if (ingress) {\n            // transfer token into exchange\n            success = IERC20(_tokenAddress).transferFrom(\n                _publicParty,\n                address(this),\n                _amount\n            );\n\n            if (!success) {\n                revert(\"Could not transfer token in.\");\n            } else {\n                userAccounts[_publicParty].tokens[_tokenAddress] += _amount;\n            }\n        } else {\n            // transfer token out of exchange\n            success = IERC20(_tokenAddress).approve(_publicParty, _amount);\n            success =\n                IERC20(_tokenAddress).transfer(_publicParty, _amount) &&\n                success;\n\n            if (!success) {\n                revert(\"Could not transfer token out.\");\n            } else {\n                userAccounts[_publicParty].tokens[_tokenAddress] -= _amount;\n            }\n        }\n    }\n\n    /// Remove an order from the structure of type OP.\n    /// @param _operation the type of order operation\n    /// @param _id the id of the order\n    /// @dev the method deletes an order from the doubly linked list ...\n    /// preserving the order of orders both berfore and after\n    function handle_remove_order(OP _operation, uint _id) internal {\n        if (_operation == OP.Sell) {\n            uint previousOrderId = sellSideExchange[sellSideIndex[_id]][_id]\n                .previous;\n            uint nextOrderId = sellSideExchange[sellSideIndex[_id]][_id].next;\n\n            sellSideExchange[sellSideIndex[previousOrderId]][previousOrderId]\n                .next = nextOrderId;\n\n            if (nextOrderId > 0) {\n                sellSideExchange[sellSideIndex[nextOrderId]][nextOrderId]\n                    .previous = previousOrderId;\n            }\n\n            delete sellSideExchange[sellSideIndex[_id]][_id];\n        } else {\n            uint previousOrderId = buySideExchange[_id].previous;\n            uint nextOrderId = buySideExchange[_id].next;\n\n            buySideExchange[previousOrderId].next = nextOrderId;\n\n            if (nextOrderId > 0) {\n                buySideExchange[nextOrderId].previous = previousOrderId;\n            }\n\n            delete buySideExchange[_id];\n        }\n    }\n\n    /// Release a global lock.\n    /// @param _operation the type of operation being locked\n    /// @dev once a lock is acquired, it is safe to operate on the structure ...\n    /// ... of type OP\n    function acquire_lock(OP _operation) internal {\n        if (_operation == OP.Sell) {\n            sellLock = true;\n        } else if (_operation == OP.PlaceBuy || _operation == OP.WithdrawBuy) {\n            buyLock = true;\n        } else if (_operation == OP.Account) {\n            accountLock = true;\n        } else {\n            accountLock = true;\n            sellLock = true;\n            buyLock = true;\n        }\n    }\n\n    /// Release a global lock.\n    /// @param _operation the type of operation being locked\n    /// @dev once a lock is released, the OP structure must not be modified\n    function release_lock(OP _operation) internal {\n        if (_operation == OP.Sell) {\n            sellLock = false;\n        } else if (_operation == OP.PlaceBuy || _operation == OP.WithdrawBuy) {\n            buyLock = false;\n        } else if (_operation == OP.Account) {\n            accountLock = false;\n        } else {\n            accountLock = false;\n            buyLock = false;\n            sellLock = false;\n        }\n    }\n\n    /// Seek the closest (strictly older than if previously initialised) index ...\n    /// ... to be used as an id within an Exchange\n    /// @param _operation the type of operation for the id\n    /// @dev the runtime of this method depends on whether the exchange data structures\n    /// are fragmented, which will theoretically be determined as a product of both time and ...\n    /// the volume of transactions through this Auction House.\n    /// @return an index\n    function seek_order_id(OP _operation) internal view returns (uint) {\n        bool buyOp = _operation == OP.PlaceBuy || _operation == OP.WithdrawBuy;\n        uint orderId = buyOp ? buyOrderId : sellOrderId;\n        bool found = false;\n        bool cycled = false;\n\n        while (!found) {\n            orderId += 1;\n\n            // Check whether an overflow is about to occur.\n            if (type(uint).max == orderId) {\n                if (cycled) {\n                    // already cycled before -- no key available\n                    revert(\"Maximum order limit reached.\");\n                }\n                cycled = true;\n            }\n\n            // Check whether the current orderId is occupied.\n            if (buyOp) {\n                found = !buySideExchange[orderId].exists ? true : found;\n            } else {\n                found = !sellSideExchange[sellSideIndex[orderId]][orderId]\n                    .exists\n                    ? true\n                    : found;\n            }\n        }\n\n        return orderId;\n    }\n\n    /// Match buy orders on the Buy Exchange to sell orders on the Sell Exchange ...\n    /// by traversing buySideExchange from head (oldest transaction) to tail (newest transaction)\n    function match_buy_sell_exchange() internal {\n        BuyOrder memory currBuy = buySideExchange[GENESIS];\n        while (true) {\n            // check if current order is not blind\n            if (currBuy.exists && currBuy.status == OrderStatus.Open) {\n                // try fulfulling the current order\n                // by matching lowest price <= current bid\n                SellOrder memory currSell = sellSideExchange[currBuy.token][\n                    GENESIS\n                ];\n\n                while (true) {\n                    if (currSell.exists && currSell.price <= currBuy.price) {\n                        // fulfil orders\n                        if (currSell.amount == currBuy.amount) {\n                            uint totalCost = currSell.price * currSell.amount;\n                            execute_match(\n                                currSell,\n                                currBuy,\n                                currSell.amount,\n                                totalCost,\n                                NONE\n                            );\n                            handle_remove_order(OP.Sell, currSell.id);\n                            handle_remove_order(OP.WithdrawBuy, currBuy.id);\n                            // current buy order fulfiled; continue to next order\n                            break;\n                        }\n                        if (currSell.amount > currBuy.amount) {\n                            // fulfil sell order in part\n                            uint totalCost = currSell.price * currBuy.amount;\n                            execute_match(\n                                currSell,\n                                currBuy,\n                                currBuy.amount,\n                                totalCost,\n                                userAccounts[currSell.owner].tokens[\n                                    currSell.token\n                                ] - currBuy.amount\n                            );\n                            sellSideExchange[currBuy.token][currSell.id]\n                                .amount -= currBuy.amount;\n                            handle_remove_order(OP.WithdrawBuy, currBuy.id);\n                            break;\n                        }\n                        if (currBuy.amount > currSell.amount) {\n                            // fulfil buy order in part\n                            uint totalCost = currSell.price * currSell.amount;\n                            execute_match(\n                                currSell,\n                                currBuy,\n                                currSell.amount,\n                                totalCost,\n                                NONE\n                            );\n                            buySideExchange[currBuy.id].amount -= currSell\n                                .amount;\n                            // buy order remains outstanding; continue\n                        }\n                        // reached the end of a sell order chain for the current token\n                        if (currSell.next == NONE) {\n                            break;\n                        }\n                        currSell = sellSideExchange[currBuy.token][\n                            currSell.next\n                        ];\n                        handle_remove_order(OP.Sell, currSell.id);\n                    } else {\n                        // reached the end of a sell order chain for the current token\n                        if (currSell.next == NONE) {\n                            break;\n                        }\n                        currSell = sellSideExchange[currBuy.token][\n                            currSell.next\n                        ];\n                    }\n                }\n            }\n            // reached the end of the buy order chain\n            if (currBuy.next == NONE) {\n                break;\n            }\n            currBuy = buySideExchange[currBuy.next];\n        }\n    }\n\n    // Execute match by brokering account data\n    function execute_match(\n        SellOrder memory _currSell,\n        BuyOrder memory _currBuy,\n        uint _amount,\n        uint _totalCost,\n        uint _remaining\n    ) internal {\n        require(\n            userAccounts[_currBuy.owner].balance >= _totalCost,\n            \"User does not have enough funds to execute transaction.\"\n        );\n\n        // decrease buyer debt accrued\n        userAccounts[_currBuy.owner].debtAccrued -= _totalCost;\n        // decrease buyer balance\n        userAccounts[_currBuy.owner].balance -= _totalCost;\n        // increase buyer token ownership\n        userAccounts[_currBuy.owner].tokens[_currSell.token] = _amount;\n        // update seller balance\n        userAccounts[_currSell.owner].balance += _totalCost;\n        // update seller token ownership\n        userAccounts[_currSell.owner].tokens[_currSell.token] = _remaining;\n    }\n}\n",
  "sourcePath": "/Users/jarrodli/personal/SolidityDutchAuction/contracts/DutchAuctionHouse.sol",
  "compiler": {
    "name": "solc",
    "version": "0.8.19+commit.7dd6d404.Emscripten.clang"
  },
  "schemaVersion": "3.4.13",
  "updatedAt": "2023-04-08T04:09:31.564Z",
  "networkType": "ethereum",
  "devdoc": {
    "kind": "dev",
    "methods": {
      "buy(bytes32,bool,uint8,bytes32,bytes32)": {
        "params": {
          "_bid": "a blind keccak256 hashed bid"
        }
      },
      "create_token_account(address,uint256)": {
        "params": {
          "_amount": "the amount of a particular token to transfer",
          "_tokenAddress": "the address of the token to be transfered"
        }
      },
      "deposit_token(address,uint256)": {
        "params": {
          "_amount": "the amount of a particular token to transfer",
          "_tokenAddress": "the address of the token to be transfered"
        }
      },
      "reduce_price(uint256,uint256)": {
        "params": {
          "_id": "the id of the existing sell order",
          "_price": "the new sell price"
        }
      },
      "sell(address,uint256,uint256)": {
        "params": {
          "_amount": "the amount of a particular token to transfer",
          "_price": "the sell price",
          "_tokenAddress": "the address of the token to be transfered"
        }
      },
      "withdraw_buy_order(uint256)": {
        "params": {
          "_id": "the id of the buy order"
        }
      },
      "withdraw_funds(address,uint256)": {
        "params": {
          "_amount": "the amount of money to transfer out",
          "transferTo": "the address for transfering the ETH"
        }
      },
      "withdraw_sell_order(uint256)": {
        "params": {
          "_id": "the id of the order"
        }
      },
      "withdraw_token(address,uint256)": {
        "params": {
          "_amount": "the amount of a particular token to transfer",
          "_tokenAddress": "the address of the token to be transferred"
        }
      }
    },
    "title": "DutchAuctionHouse",
    "version": 1
  },
  "userdoc": {
    "kind": "user",
    "methods": {
      "buy(bytes32,bool,uint8,bytes32,bytes32)": {
        "notice": "Creates a blind buy order."
      },
      "create_account()": {
        "notice": "Creates an account."
      },
      "create_pk_account(bytes32)": {
        "notice": "Creates an account."
      },
      "create_token_account(address,uint256)": {
        "notice": "Creates an account, accepting a token."
      },
      "deposit_funds()": {
        "notice": "Increases the amount of ETH available to a user who has an account."
      },
      "deposit_token(address,uint256)": {
        "notice": "Accepts a token for use in the Auction House."
      },
      "init_match_phase()": {
        "notice": "Begins the matching phase between market participants."
      },
      "reduce_price(uint256,uint256)": {
        "notice": "Reduces the price of an active sell order."
      },
      "sell(address,uint256,uint256)": {
        "notice": "Creates a sell order."
      },
      "withdraw_buy_order(uint256)": {
        "notice": "Removes an active buy order from the market."
      },
      "withdraw_funds(address,uint256)": {
        "notice": "Returns funds to a user."
      },
      "withdraw_sell_order(uint256)": {
        "notice": "Removes an active sell order."
      },
      "withdraw_token(address,uint256)": {
        "notice": "Returns a token to a user."
      }
    },
    "version": 1
  }
}